{"contracts/MultichainPredictionMarket.sol":{"MultichainPredictionMarket":{"abi":[{"inputs":[{"internalType":"address","name":"initialOwner","type":"address"},{"internalType":"address","name":"protocolFeeRecipient_","type":"address"}],"stateMutability":"nonpayable","type":"constructor"},{"inputs":[],"name":"InsufficientBackstop","type":"error"},{"inputs":[],"name":"InvalidAmount","type":"error"},{"inputs":[],"name":"InvalidOutcome","type":"error"},{"inputs":[],"name":"InvalidOutcomeCount","type":"error"},{"inputs":[],"name":"InvalidRecipient","type":"error"},{"inputs":[],"name":"InvalidResolver","type":"error"},{"inputs":[],"name":"InvalidTimestamp","type":"error"},{"inputs":[],"name":"MarketClosed","type":"error"},{"inputs":[],"name":"MarketNotResolved","type":"error"},{"inputs":[],"name":"MarketNotTrading","type":"error"},{"inputs":[],"name":"MarketStillTrading","type":"error"},{"inputs":[],"name":"NoClaimableFees","type":"error"},{"inputs":[],"name":"NoLiquidity","type":"error"},{"inputs":[],"name":"NoWinnings","type":"error"},{"inputs":[],"name":"NotEnoughShares","type":"error"},{"inputs":[],"name":"NotResolver","type":"error"},{"inputs":[{"internalType":"address","name":"owner","type":"address"}],"name":"OwnableInvalidOwner","type":"error"},{"inputs":[{"internalType":"address","name":"account","type":"address"}],"name":"OwnableUnauthorizedAccount","type":"error"},{"inputs":[{"internalType":"address","name":"token","type":"address"}],"name":"SafeERC20FailedOperation","type":"error"},{"inputs":[],"name":"ZeroPayout","type":"error"},{"inputs":[],"name":"ZeroSharesOut","type":"error"},{"anonymous":false,"inputs":[{"indexed":true,"internalType":"uint256","name":"marketId","type":"uint256"},{"indexed":true,"internalType":"address","name":"provider","type":"address"},{"indexed":false,"internalType":"uint256","name":"collateralAmount","type":"uint256"},{"indexed":false,"internalType":"uint256","name":"mintedShares","type":"uint256"}],"name":"LiquidityAdded","type":"event"},{"anonymous":false,"inputs":[{"indexed":true,"internalType":"uint256","name":"marketId","type":"uint256"},{"indexed":true,"internalType":"address","name":"provider","type":"address"},{"indexed":false,"internalType":"uint256","name":"collateralAmount","type":"uint256"},{"indexed":false,"internalType":"uint256","name":"burnedShares","type":"uint256"}],"name":"LiquidityRedeemed","type":"event"},{"anonymous":false,"inputs":[{"indexed":true,"internalType":"uint256","name":"marketId","type":"uint256"},{"indexed":true,"internalType":"address","name":"provider","type":"address"},{"indexed":false,"internalType":"uint256","name":"collateralOut","type":"uint256"}],"name":"LpFeesClaimed","type":"event"},{"anonymous":false,"inputs":[{"indexed":true,"internalType":"uint256","name":"marketId","type":"uint256"},{"indexed":true,"internalType":"address","name":"creator","type":"address"},{"indexed":true,"internalType":"address","name":"collateralToken","type":"address"},{"indexed":false,"internalType":"uint8","name":"numOutcomes","type":"uint8"},{"indexed":false,"internalType":"uint256","name":"initialLiquidity","type":"uint256"},{"indexed":false,"internalType":"uint256","name":"tradingEndsAt","type":"uint256"},{"indexed":false,"internalType":"address","name":"resolver","type":"address"}],"name":"MarketCreated","type":"event"},{"anonymous":false,"inputs":[{"indexed":true,"internalType":"uint256","name":"marketId","type":"uint256"},{"indexed":true,"internalType":"uint8","name":"winningOutcome","type":"uint8"},{"indexed":false,"internalType":"uint256","name":"lockedWinningCollateral","type":"uint256"},{"indexed":false,"internalType":"uint256","name":"redeemableLiquidity","type":"uint256"}],"name":"MarketResolved","type":"event"},{"anonymous":false,"inputs":[{"indexed":true,"internalType":"address","name":"previousOwner","type":"address"},{"indexed":true,"internalType":"address","name":"newOwner","type":"address"}],"name":"OwnershipTransferred","type":"event"},{"anonymous":false,"inputs":[{"indexed":true,"internalType":"address","name":"previousRecipient","type":"address"},{"indexed":true,"internalType":"address","name":"newRecipient","type":"address"}],"name":"ProtocolFeeRecipientUpdated","type":"event"},{"anonymous":false,"inputs":[{"indexed":true,"internalType":"uint256","name":"marketId","type":"uint256"},{"indexed":true,"internalType":"address","name":"buyer","type":"address"},{"indexed":true,"internalType":"uint8","name":"outcomeIndex","type":"uint8"},{"indexed":false,"internalType":"uint256","name":"collateralIn","type":"uint256"},{"indexed":false,"internalType":"uint256","name":"sharesOut","type":"uint256"},{"indexed":false,"internalType":"uint256","name":"protocolFee","type":"uint256"},{"indexed":false,"internalType":"uint256","name":"lpFee","type":"uint256"}],"name":"SharesBought","type":"event"},{"anonymous":false,"inputs":[{"indexed":true,"internalType":"uint256","name":"marketId","type":"uint256"},{"indexed":true,"internalType":"address","name":"seller","type":"address"},{"indexed":true,"internalType":"uint8","name":"outcomeIndex","type":"uint8"},{"indexed":false,"internalType":"uint256","name":"sharesIn","type":"uint256"},{"indexed":false,"internalType":"uint256","name":"collateralOut","type":"uint256"},{"indexed":false,"internalType":"uint256","name":"protocolFee","type":"uint256"},{"indexed":false,"internalType":"uint256","name":"lpFee","type":"uint256"}],"name":"SharesSold","type":"event"},{"anonymous":false,"inputs":[{"indexed":true,"internalType":"uint256","name":"marketId","type":"uint256"},{"indexed":true,"internalType":"address","name":"user","type":"address"},{"indexed":false,"internalType":"uint256","name":"collateralOut","type":"uint256"}],"name":"WinningsClaimed","type":"event"},{"inputs":[],"name":"BPS","outputs":[{"internalType":"uint256","name":"","type":"uint256"}],"stateMutability":"view","type":"function"},{"inputs":[],"name":"LP_FEE_BPS","outputs":[{"internalType":"uint256","name":"","type":"uint256"}],"stateMutability":"view","type":"function"},{"inputs":[],"name":"MAX_OUTCOMES","outputs":[{"internalType":"uint256","name":"","type":"uint256"}],"stateMutability":"view","type":"function"},{"inputs":[],"name":"PROTOCOL_FEE_BPS","outputs":[{"internalType":"uint256","name":"","type":"uint256"}],"stateMutability":"view","type":"function"},{"inputs":[],"name":"TOTAL_FEE_BPS","outputs":[{"internalType":"uint256","name":"","type":"uint256"}],"stateMutability":"view","type":"function"},{"inputs":[{"internalType":"uint256","name":"marketId","type":"uint256"},{"internalType":"uint256","name":"collateralAmount","type":"uint256"}],"name":"addLiquidity","outputs":[],"stateMutability":"nonpayable","type":"function"},{"inputs":[{"internalType":"uint256","name":"marketId","type":"uint256"},{"internalType":"uint8","name":"outcomeIndex","type":"uint8"},{"internalType":"uint256","name":"collateralAmount","type":"uint256"}],"name":"buyShares","outputs":[],"stateMutability":"nonpayable","type":"function"},{"inputs":[{"internalType":"uint256","name":"marketId","type":"uint256"}],"name":"claimLpFees","outputs":[],"stateMutability":"nonpayable","type":"function"},{"inputs":[{"internalType":"uint256","name":"marketId","type":"uint256"}],"name":"claimWinnings","outputs":[],"stateMutability":"nonpayable","type":"function"},{"inputs":[{"internalType":"address","name":"collateralToken","type":"address"},{"internalType":"uint8","name":"numOutcomes","type":"uint8"},{"internalType":"uint256","name":"tradingEndsAt","type":"uint256"},{"internalType":"uint256","name":"initialLiquidity","type":"uint256"},{"internalType":"address","name":"resolver","type":"address"}],"name":"createMarket","outputs":[{"internalType":"uint256","name":"marketId","type":"uint256"}],"stateMutability":"nonpayable","type":"function"},{"inputs":[{"internalType":"uint256","name":"marketId","type":"uint256"},{"internalType":"address","name":"provider","type":"address"}],"name":"getLpPosition","outputs":[{"internalType":"uint256","name":"liquidityShares","type":"uint256"},{"internalType":"uint256","name":"pendingFees","type":"uint256"},{"internalType":"uint256","name":"feeDebt","type":"uint256"}],"stateMutability":"view","type":"function"},{"inputs":[{"internalType":"uint256","name":"marketId","type":"uint256"},{"internalType":"uint8","name":"outcomeIndex","type":"uint8"}],"name":"getOutcomePrice","outputs":[{"internalType":"uint256","name":"priceE18","type":"uint256"}],"stateMutability":"view","type":"function"},{"inputs":[{"internalType":"uint256","name":"marketId","type":"uint256"}],"name":"getPools","outputs":[{"internalType":"uint256[8]","name":"","type":"uint256[8]"}],"stateMutability":"view","type":"function"},{"inputs":[{"internalType":"uint256","name":"marketId","type":"uint256"},{"internalType":"address","name":"user","type":"address"}],"name":"getUserShares","outputs":[{"internalType":"uint256[8]","name":"","type":"uint256[8]"}],"stateMutability":"view","type":"function"},{"inputs":[{"internalType":"uint256","name":"","type":"uint256"},{"internalType":"address","name":"","type":"address"}],"name":"lpPositions","outputs":[{"internalType":"uint256","name":"liquidityShares","type":"uint256"},{"internalType":"uint256","name":"feeDebt","type":"uint256"},{"internalType":"uint256","name":"claimableFees","type":"uint256"}],"stateMutability":"view","type":"function"},{"inputs":[{"internalType":"uint256","name":"","type":"uint256"}],"name":"markets","outputs":[{"internalType":"address","name":"creator","type":"address"},{"internalType":"address","name":"collateralToken","type":"address"},{"internalType":"address","name":"resolver","type":"address"},{"internalType":"uint40","name":"tradingEndsAt","type":"uint40"},{"internalType":"uint8","name":"numOutcomes","type":"uint8"},{"internalType":"enum MultichainPredictionMarket.MarketStatus","name":"status","type":"uint8"},{"internalType":"uint8","name":"winningOutcome","type":"uint8"},{"internalType":"uint256","name":"totalLiquidityShares","type":"uint256"},{"internalType":"uint256","name":"accLpFeePerShare","type":"uint256"},{"internalType":"uint256","name":"lpFeeVault","type":"uint256"},{"internalType":"uint256","name":"backstopCollateral","type":"uint256"},{"internalType":"uint256","name":"lockedWinningCollateral","type":"uint256"},{"internalType":"uint256","name":"redeemableLiquidity","type":"uint256"}],"stateMutability":"view","type":"function"},{"inputs":[],"name":"nextMarketId","outputs":[{"internalType":"uint256","name":"","type":"uint256"}],"stateMutability":"view","type":"function"},{"inputs":[],"name":"owner","outputs":[{"internalType":"address","name":"","type":"address"}],"stateMutability":"view","type":"function"},{"inputs":[],"name":"protocolFeeRecipient","outputs":[{"internalType":"address","name":"","type":"address"}],"stateMutability":"view","type":"function"},{"inputs":[{"internalType":"uint256","name":"marketId","type":"uint256"},{"internalType":"uint256","name":"liquiditySharesToBurn","type":"uint256"}],"name":"redeemLiquidity","outputs":[],"stateMutability":"nonpayable","type":"function"},{"inputs":[],"name":"renounceOwnership","outputs":[],"stateMutability":"nonpayable","type":"function"},{"inputs":[{"internalType":"uint256","name":"marketId","type":"uint256"},{"internalType":"uint8","name":"winningOutcome","type":"uint8"}],"name":"resolveMarket","outputs":[],"stateMutability":"nonpayable","type":"function"},{"inputs":[{"internalType":"uint256","name":"marketId","type":"uint256"},{"internalType":"uint8","name":"outcomeIndex","type":"uint8"},{"internalType":"uint256","name":"sharesIn","type":"uint256"}],"name":"sellShares","outputs":[],"stateMutability":"nonpayable","type":"function"},{"inputs":[{"internalType":"address","name":"newRecipient","type":"address"}],"name":"setProtocolFeeRecipient","outputs":[],"stateMutability":"nonpayable","type":"function"},{"inputs":[{"internalType":"address","name":"newOwner","type":"address"}],"name":"transferOwnership","outputs":[],"stateMutability":"nonpayable","type":"function"},{"inputs":[{"internalType":"uint256","name":"","type":"uint256"},{"internalType":"address","name":"","type":"address"},{"internalType":"uint256","name":"","type":"uint256"}],"name":"userShares","outputs":[{"internalType":"uint256","name":"","type":"uint256"}],"stateMutability":"view","type":"function"}],"evm":{"bytecode":{"linkReferences":{},"object":"608060405234801562000010575f80fd5b50604051620021ce380380620021ce833981016040819052620000339162000128565b816001600160a01b0381166200006257604051631e4fbdf760e01b81525f600482015260240160405180910390fd5b6200006d81620000bd565b506001600160a01b0381166200009657604051634e46966960e11b815260040160405180910390fd5b600180546001600160a01b0319166001600160a01b0392909216919091179055506200015e565b5f80546001600160a01b038381166001600160a01b0319831681178455604051919092169283917f8be0079c531659141344cd1fd0a4f28419497f9722a3daafe3b4186f6b6457e09190a35050565b80516001600160a01b038116811462000123575f80fd5b919050565b5f80604083850312156200013a575f80fd5b62000145836200010c565b915062000155602084016200010c565b90509250929050565b612062806200016c5f395ff3fe608060405234801561000f575f80fd5b5060043610610187575f3560e01c806399406c9b116100d9578063be37822811610093578063dc73d1641161006e578063dc73d16414610402578063df55406e1461040a578063e521cb921461041d578063f2fde38b14610430575f80fd5b8063be378228146103d4578063c22acd36146103dc578063d27ff2fc146103ef575f80fd5b806399406c9b146102d05780639cd441da146102e35780639f1e3bf0146102f6578063a525821014610309578063b1283e7714610311578063b1b40973146103c1575f80fd5b806362d26ed7116101445780636f28507c1161011f5780636f28507c1461029d578063715018a6146102a5578063835dc40b146102ad5780638da5cb5b146102c0575f80fd5b806362d26ed71461023f57806364df049e1461025f578063677bd9ff1461028a575f80fd5b8063111239421461018b5780631af63283146101e45780631fdbc3c8146101f9578063249d39e91461020c578063406ef2ef1461022357806349364d231461022c575b5f80fd5b6101c4610199366004611d53565b600560209081525f928352604080842090915290825290208054600182015460029092015490919083565b604080519384526020840192909252908201526060015b60405180910390f35b6101f76101f2366004611d8d565b610443565b005b6101c4610207366004611d53565b6106cf565b61021561271081565b6040519081526020016101db565b61021560025481565b6101f761023a366004611dbf565b610775565b61025261024d366004611ddf565b610954565b6040516101db9190611df6565b600154610272906001600160a01b031681565b6040516001600160a01b0390911681526020016101db565b6101f7610298366004611ddf565b6109a3565b61021560c881565b6101f7610b08565b6102526102bb366004611d53565b610b1b565b5f546001600160a01b0316610272565b6101f76102de366004611ddf565b610b79565b6101f76102f1366004611dbf565b610c66565b610215610304366004611e27565b610da4565b610215609681565b6103a861031f366004611ddf565b600360208190525f91825260409091208054600182015460028301549383015460048401546005850154600686015460078701546008909701546001600160a01b0396871698958716979686169664ffffffffff600160a01b8804169660ff600160c81b8204811697600160d01b8304821697600160d81b90930490911695909491939092908d565b6040516101db9d9c9b9a99989796959493929190611eae565b6102156103cf366004611f34565b610fd6565b610215603281565b6101f76103ea366004611d8d565b6110f0565b6102156103fd366004611f55565b611415565b610215600881565b6101f7610418366004611f34565b611442565b6101f761042b366004611f77565b6115f9565b6101f761043e366004611f77565b611683565b5f838152600360205260409020610459816116c5565b600281015460ff600160c81b90910481169084161061048b5760405163c74a206d60e01b815260040160405180910390fd5b815f036104ab5760405163162908e360e11b815260040160405180910390fd5b60018101546001600160a01b03166104c581333086611735565b5f6127106104d4603286611fa4565b6104de9190611fbb565b90505f6127106104ef609687611fa4565b6104f99190611fbb565b90505f816105078488611fda565b6105119190611fda565b9050821561053357600154610533906001600160a01b03868116911685611771565b61053d88836117ab565b80856006015f8282546105509190611fed565b909155505f9050610562868984611824565b9050805f036105845760405163e9f3001f60e01b815260040160405180910390fd5b5f5b600287015460ff600160c81b909104811690821610156105d55782876009018260ff16600881106105b9576105b9612000565b015f8282546105c89190611fed565b9091555050600101610586565b5080866009018960ff16600881106105ef576105ef612000565b015f8282546105fe9190611fda565b90915550505f8981526004602090815260408083203384529091529020819060ff8a166008811061063157610631612000565b015f8282546106409190611fed565b909155508190506011870160ff8a166008811061065f5761065f612000565b015f82825461066e9190611fed565b909155505060408051888152602081018390529081018590526060810184905260ff89169033908b907ff306f50e892c3cafcbf9be5c1bc70826fcf0dbeb58cc23aa418daa791bb1b8599060800160405180910390a4505050505050505050565b5f828152600360209081526040808320600583528184206001600160a01b038616855290925282206004820154815484938493909290918491670de0b6b3a76400009161071c9190611fa4565b6107269190611fbb565b90505f8260010154821161073a575f610749565b60018301546107499083611fda565b9050825f015481846002015461075f9190611fed565b8460010154965096509650505050509250925092565b5f82815260036020526040902060016002820154600160d01b900460ff1660018111156107a4576107a4611e7a565b146107c25760405163174b639360e11b815260040160405180910390fd5b815f036107e25760405163162908e360e11b815260040160405180910390fd5b6107ec8333611906565b5f8381526005602090815260408083203384529091529020805483111561082657604051636180f03f60e11b815260040160405180910390fd5b5f826003015484846008015461083c9190611fa4565b6108469190611fbb565b9050805f0361086857604051636180f03f60e11b815260040160405180910390fd5b83825f015f82825461087a9190611fda565b909155505060048301548254670de0b6b3a76400009161089991611fa4565b6108a39190611fbb565b826001018190555083836003015f8282546108be9190611fda565b9250508190555080836008015f8282546108d89190611fda565b9250508190555080836006015f8282546108f29190611fda565b90915550506001830154610910906001600160a01b03163383611771565b6040805182815260208101869052339187917fd9d3eb4a1b9584fae8de423bfba2f6e6c259ce063158b066a17ae59bdfb36957910160405180910390a35050505050565b61095c611d19565b5f82815260036020526040908190208151610100810190925260090160088282826020028201915b8154815260200190600101908083116109845750505050509050919050565b5f81815260036020526040902060016002820154600160d01b900460ff1660018111156109d2576109d2611e7a565b146109f05760405163174b639360e11b815260040160405180910390fd5b60028101545f8381526004602090815260408083203384529091528120600160d81b90920460ff16918260088110610a2a57610a2a612000565b01549050805f03610a4e576040516330a748d360e11b815260040160405180910390fd5b5f848152600460209081526040808320338452909152812060ff841660088110610a7a57610a7a612000565b018190555080836007015f828254610a929190611fda565b9250508190555080836006015f828254610aac9190611fda565b90915550506001830154610aca906001600160a01b03163383611771565b604051818152339085907f5380cf6fe903b40c6d5a9e0dfbca2f3a423f0a21520b4d5947ed5169bdba946d906020015b60405180910390a350505050565b610b106119ad565b610b195f6119d9565b565b610b23611d19565b5f8381526004602090815260408083206001600160a01b03861684529091529081902081516101008101928390529160089082845b815481526020019060010190808311610b5857505050505090505b92915050565b5f818152600360205260409020610b908233611906565b5f828152600560209081526040808320338452909152812060028101549091819003610bcf576040516354a8917960e01b815260040160405180910390fd5b5f600283015560048301548254670de0b6b3a764000091610bef91611fa4565b610bf99190611fbb565b826001018190555080836005015f828254610c149190611fda565b90915550506001830154610c32906001600160a01b03163383611771565b604051818152339085907f564d03ca8b35e10bc8a440f1b3f546629000b00f689200a14ca91a979d2f8d7590602001610afa565b5f828152600360205260409020610c7c816116c5565b815f03610c9c5760405163162908e360e11b815260040160405180910390fd5b610ca68333611906565b5f81600301545f1480610cbb57506006820154155b15610cc7575081610ce8565b60068201546003830154610cdb9085611fa4565b610ce59190611fbb565b90505b805f03610d0857604051636180f03f60e11b815260040160405180910390fd5b6001820154610d22906001600160a01b0316333086611735565b80826003015f828254610d359190611fed565b9250508190555082826006015f828254610d4f9190611fed565b90915550610d5f90508284611a28565b610d6a843383611ae5565b6040805184815260208101839052339186917f4f523f2d8e587b404d27e399464f42a7ffc415da39a6130a6e0e6d3be91283269101610afa565b5f6001600160a01b038616610dcc57604051634e46966960e11b815260040160405180910390fd5b6001600160a01b038216610df357604051631b68fd9560e21b815260040160405180910390fd5b60028560ff161080610e08575060088560ff16115b15610e265760405163162cc9e360e11b815260040160405180910390fd5b428411610e465760405163b7d0949760e01b815260040160405180910390fd5b825f03610e665760405163162908e360e11b815260040160405180910390fd5b610e7b6001600160a01b038716333086611735565b60028054905f610e8a83612014565b909155505f8181526003602081905260409091208054336001600160a01b03199182161782556001820180549091166001600160a01b038b81169190911790915560028201805461ffff60c81b199288166001600160c81b031990911617600160a01b64ffffffffff8b1602179190911660ff60d01b19600160c81b60ff8c16021617905590810185905560068101859055909150610f298185611a28565b610f34823386611ae5565b6040805160ff88168152602081018690529081018690526001600160a01b038481166060830152881690339084907fb0d6b0e6c566cde6ce84f22baf9c21d8dcde82d797663ebb76a6918dc76426fa9060800160405180910390a46040805185815260208101869052339184917f4f523f2d8e587b404d27e399464f42a7ffc415da39a6130a6e0e6d3be9128326910160405180910390a35095945050505050565b5f828152600360205260408120600281015460ff600160c81b9091048116908416106110155760405163c74a206d60e01b815260040160405180910390fd5b6ec097ce7bc90715b34b9f10000000005f805b600284015460ff600160c81b90910481169082161015611092575f846009018260ff166008811061105b5761105b612000565b01549050805f03611073575f95505050505050610b73565b61107d8185611fbb565b6110879084611fed565b925050600101611028565b50805f036110a5575f9350505050610b73565b80836009018660ff16600881106110be576110be612000565b01546110ca9084611fbb565b6110dc90670de0b6b3a7640000611fa4565b6110e69190611fbb565b9695505050505050565b5f838152600360205260409020611106816116c5565b600281015460ff600160c81b9091048116908416106111385760405163c74a206d60e01b815260040160405180910390fd5b815f036111585760405163162908e360e11b815260040160405180910390fd5b5f8481526004602090815260408083203384529091529020829060ff85166008811061118657611186612000565b015410156111a757604051633c57b48560e21b815260040160405180910390fd5b5f6111b3828585611b4f565b9050805f036111d557604051635788801b60e11b815260040160405180910390fd5b80826006015410156111fa57604051630ba393bb60e41b815260040160405180910390fd5b5f612710611209603284611fa4565b6112139190611fbb565b90505f612710611224609685611fa4565b61122e9190611fbb565b90505f8161123c8486611fda565b6112469190611fda565b905085856009018860ff166008811061126157611261612000565b015f8282546112709190611fed565b909155505060028501545f9061129090600160c81b900460ff1686611fbb565b90505f5b600287015460ff600160c81b909104811690821610156112e35781876009018260ff16600881106112c7576112c7612000565b015f8282546112d69190611fda565b9091555050600101611294565b5084866006015f8282546112f79190611fda565b90915550505f8981526004602090815260408083203384529091529020879060ff8a166008811061132a5761132a612000565b015f8282546113399190611fda565b909155508790506011870160ff8a166008811061135857611358612000565b015f8282546113679190611fda565b909155505060018601546001600160a01b0316841561139a5760015461139a906001600160a01b03838116911687611771565b6113a48a856117ab565b6113b86001600160a01b0382163385611771565b60408051898152602081018590529081018690526060810185905260ff8a169033908c907fb62a4504befd6b99464affdb6bd0d6528dd160f73ce088071d37c731e650d7799060800160405180910390a450505050505050505050565b6004602052825f5260405f20602052815f5260405f208160088110611438575f80fd5b0154925083915050565b5f828152600360205260408120906002820154600160d01b900460ff16600181111561147057611470611e7a565b1461148e57604051633a67d48160e01b815260040160405180910390fd5b6002810154600160a01b900464ffffffffff164210156114c157604051636ccc842d60e01b815260040160405180910390fd5b600281015460ff600160c81b9091048116908316106114f35760405163c74a206d60e01b815260040160405180910390fd5b60028101546001600160a01b0316331480159061151a57505f546001600160a01b03163314155b1561153857604051635d154fe160e11b815260040160405180910390fd5b5f816011018360ff166008811061155157611551612000565b01549050808260060154101561157a57604051630ba393bb60e41b815260040160405180910390fd5b60028201805460ff8516600160d81b0261ffff60d01b1990911617600160d01b1790556007820181905560068201546115b4908290611fda565b6008830181905560408051838152602081019290925260ff85169186917f503d167e0856e2f40aaac2dac6550f9543efb837691cc189cde53b0172e4f32b9101610afa565b6116016119ad565b6001600160a01b03811661162857604051634e46966960e11b815260040160405180910390fd5b6001546040516001600160a01b038084169216907fd3890fc76afcfc31cba1dcf2c27b50e2541e4d75039c981855b5b5e03682aea0905f90a3600180546001600160a01b0319166001600160a01b0392909216919091179055565b61168b6119ad565b6001600160a01b0381166116b957604051631e4fbdf760e01b81525f60048201526024015b60405180910390fd5b6116c2816119d9565b50565b5f6002820154600160d01b900460ff1660018111156116e6576116e6611e7a565b1461170457604051633a67d48160e01b815260040160405180910390fd5b6002810154600160a01b900464ffffffffff1642106116c25760405162b5f6bf60e41b815260040160405180910390fd5b611743848484846001611c4a565b61176b57604051635274afe760e01b81526001600160a01b03851660048201526024016116b0565b50505050565b61177e8383836001611cb7565b6117a657604051635274afe760e01b81526001600160a01b03841660048201526024016116b0565b505050565b805f036117b6575050565b5f828152600360205260408120600581018054919284926117d8908490611fed565b90915550506003810154156117a65760038101546117fe670de0b6b3a764000084611fa4565b6118089190611fbb565b816004015f82825461181a9190611fed565b9091555050505050565b5f80846009018460ff166008811061183e5761183e612000565b015490505f5b600286015460ff600160c81b909104811690821610156118ca578460ff168160ff1603156118c25783866009018260ff166008811061188557611885612000565b01546118919190611fed565b866009018260ff16600881106118a9576118a9612000565b01546118b59084611fa4565b6118bf9190611fbb565b91505b600101611844565b508083866009018660ff16600881106118e5576118e5612000565b01546118f19190611fed565b6118fb9190611fda565b9150505b9392505050565b5f828152600360209081526040808320600583528184206001600160a01b038616855290925282208054919290919003611946575f600190910155505050565b5f670de0b6b3a76400008360040154835f01546119639190611fa4565b61196d9190611fbb565b905081600101548111156119a257600182015461198a9082611fda565b826002015f82825461199c9190611fed565b90915550505b600190910155505050565b5f546001600160a01b03163314610b195760405163118cdaa760e01b81523360048201526024016116b0565b5f80546001600160a01b038381166001600160a01b0319831681178455604051919092169283917f8be0079c531659141344cd1fd0a4f28419497f9722a3daafe3b4186f6b6457e09190a35050565b60028201545f90611a4390600160c81b900460ff1683611fbb565b60028401549091505f90611a6190600160c81b900460ff1683611fa4565b611a6b9084611fda565b90505f5b600285015460ff600160c81b90910481169082161015611abe5782856009018260ff1660088110611aa257611aa2612000565b015f828254611ab19190611fed565b9091555050600101611a6f565b50801561176b5780600985015f015f828254611ada9190611fed565b909155505050505050565b5f8381526005602090815260408083206001600160a01b03861684529091528120805490918391839190611b1a908490611fed565b90915550505f848152600360205260409020600401548154670de0b6b3a764000091611b4591611fa4565b6119a29190611fbb565b5f6ec097ce7bc90715b34b9f100000000081805b600287015460ff600160c81b90910481169082161015611bcc575f876009018260ff1660088110611b9657611b96612000565b01549050805f03611bad575f9450505050506118ff565b611bb78185611fbb565b611bc19084611fed565b925050600101611b63565b50805f03611bde575f925050506118ff565b5f81876009018760ff1660088110611bf857611bf8612000565b0154611c049085611fbb565b611c1690670de0b6b3a7640000611fa4565b611c209190611fbb565b9050670de0b6b3a7640000611c358287611fa4565b611c3f9190611fbb565b979650505050505050565b6040516323b872dd60e01b5f8181526001600160a01b038781166004528616602452604485905291602083606481808c5af1925060015f51148316611ca6578383151615611c9a573d5f823e3d81fd5b5f883b113d1516831692505b604052505f60605295945050505050565b60405163a9059cbb60e01b5f8181526001600160a01b038616600452602485905291602083604481808b5af1925060015f51148316611d0d578383151615611d01573d5f823e3d81fd5b5f873b113d1516831692505b60405250949350505050565b6040518061010001604052806008906020820280368337509192915050565b80356001600160a01b0381168114611d4e575f80fd5b919050565b5f8060408385031215611d64575f80fd5b82359150611d7460208401611d38565b90509250929050565b803560ff81168114611d4e575f80fd5b5f805f60608486031215611d9f575f80fd5b83359250611daf60208501611d7d565b9150604084013590509250925092565b5f8060408385031215611dd0575f80fd5b50508035926020909101359150565b5f60208284031215611def575f80fd5b5035919050565b610100810181835f5b6008811015611e1e578151835260209283019290910190600101611dff565b50505092915050565b5f805f805f60a08688031215611e3b575f80fd5b611e4486611d38565b9450611e5260208701611d7d565b93506040860135925060608601359150611e6e60808701611d38565b90509295509295909350565b634e487b7160e01b5f52602160045260245ffd5b60028110611eaa57634e487b7160e01b5f52602160045260245ffd5b9052565b6001600160a01b038e811682528d811660208301528c16604082015264ffffffffff8b16606082015260ff8a1660808201526101a08101611ef260a083018b611e8e565b60ff9890981660c082015260e0810196909652610100860194909452610120850192909252610140840152610160830152610180909101529695505050505050565b5f8060408385031215611f45575f80fd5b82359150611d7460208401611d7d565b5f805f60608486031215611f67575f80fd5b83359250611daf60208501611d38565b5f60208284031215611f87575f80fd5b6118ff82611d38565b634e487b7160e01b5f52601160045260245ffd5b8082028115828204841417610b7357610b73611f90565b5f82611fd557634e487b7160e01b5f52601260045260245ffd5b500490565b81810381811115610b7357610b73611f90565b80820180821115610b7357610b73611f90565b634e487b7160e01b5f52603260045260245ffd5b5f6001820161202557612025611f90565b506001019056fea26469706673582212209035bd28c1125a3e21d0fc1e869c3146a38d8a03fd921f9b33240c4fd9f9008464736f6c63430008180033","opcodes":"PUSH1 0x80 PUSH1 0x40 MSTORE CALLVALUE DUP1 ISZERO PUSH3 0x10 JUMPI PUSH0 DUP1 REVERT JUMPDEST POP PUSH1 0x40 MLOAD PUSH3 0x21CE CODESIZE SUB DUP1 PUSH3 0x21CE DUP4 CODECOPY DUP2 ADD PUSH1 0x40 DUP2 SWAP1 MSTORE PUSH3 0x33 SWAP2 PUSH3 0x128 JUMP JUMPDEST DUP2 PUSH1 0x1 PUSH1 0x1 PUSH1 0xA0 SHL SUB DUP2 AND PUSH3 0x62 JUMPI PUSH1 0x40 MLOAD PUSH4 0x1E4FBDF7 PUSH1 0xE0 SHL DUP2 MSTORE PUSH0 PUSH1 0x4 DUP3 ADD MSTORE PUSH1 0x24 ADD PUSH1 0x40 MLOAD DUP1 SWAP2 SUB SWAP1 REVERT JUMPDEST PUSH3 0x6D DUP2 PUSH3 0xBD JUMP JUMPDEST POP PUSH1 0x1 PUSH1 0x1 PUSH1 0xA0 SHL SUB DUP2 AND PUSH3 0x96 JUMPI PUSH1 0x40 MLOAD PUSH4 0x4E469669 PUSH1 0xE1 SHL DUP2 MSTORE PUSH1 0x4 ADD PUSH1 0x40 MLOAD DUP1 SWAP2 SUB SWAP1 REVERT JUMPDEST PUSH1 0x1 DUP1 SLOAD PUSH1 0x1 PUSH1 0x1 PUSH1 0xA0 SHL SUB NOT AND PUSH1 0x1 PUSH1 0x1 PUSH1 0xA0 SHL SUB SWAP3 SWAP1 SWAP3 AND SWAP2 SWAP1 SWAP2 OR SWAP1 SSTORE POP PUSH3 0x15E JUMP JUMPDEST PUSH0 DUP1 SLOAD PUSH1 0x1 PUSH1 0x1 PUSH1 0xA0 SHL SUB DUP4 DUP2 AND PUSH1 0x1 PUSH1 0x1 PUSH1 0xA0 SHL SUB NOT DUP4 AND DUP2 OR DUP5 SSTORE PUSH1 0x40 MLOAD SWAP2 SWAP1 SWAP3 AND SWAP3 DUP4 SWAP2 PUSH32 0x8BE0079C531659141344CD1FD0A4F28419497F9722A3DAAFE3B4186F6B6457E0 SWAP2 SWAP1 LOG3 POP POP JUMP JUMPDEST DUP1 MLOAD PUSH1 0x1 PUSH1 0x1 PUSH1 0xA0 SHL SUB DUP2 AND DUP2 EQ PUSH3 0x123 JUMPI PUSH0 DUP1 REVERT JUMPDEST SWAP2 SWAP1 POP JUMP JUMPDEST PUSH0 DUP1 PUSH1 0x40 DUP4 DUP6 SUB SLT ISZERO PUSH3 0x13A JUMPI PUSH0 DUP1 REVERT JUMPDEST PUSH3 0x145 DUP4 PUSH3 0x10C JUMP JUMPDEST SWAP2 POP PUSH3 0x155 PUSH1 0x20 DUP5 ADD PUSH3 0x10C JUMP JUMPDEST SWAP1 POP SWAP3 POP SWAP3 SWAP1 POP JUMP JUMPDEST PUSH2 0x2062 DUP1 PUSH3 0x16C PUSH0 CODECOPY PUSH0 RETURN INVALID PUSH1 0x80 PUSH1 0x40 MSTORE CALLVALUE DUP1 ISZERO PUSH2 0xF JUMPI PUSH0 DUP1 REVERT JUMPDEST POP PUSH1 0x4 CALLDATASIZE LT PUSH2 0x187 JUMPI PUSH0 CALLDATALOAD PUSH1 0xE0 SHR DUP1 PUSH4 0x99406C9B GT PUSH2 0xD9 JUMPI DUP1 PUSH4 0xBE378228 GT PUSH2 0x93 JUMPI DUP1 PUSH4 0xDC73D164 GT PUSH2 0x6E JUMPI DUP1 PUSH4 0xDC73D164 EQ PUSH2 0x402 JUMPI DUP1 PUSH4 0xDF55406E EQ PUSH2 0x40A JUMPI DUP1 PUSH4 0xE521CB92 EQ PUSH2 0x41D JUMPI DUP1 PUSH4 0xF2FDE38B EQ PUSH2 0x430 JUMPI PUSH0 DUP1 REVERT JUMPDEST DUP1 PUSH4 0xBE378228 EQ PUSH2 0x3D4 JUMPI DUP1 PUSH4 0xC22ACD36 EQ PUSH2 0x3DC JUMPI DUP1 PUSH4 0xD27FF2FC EQ PUSH2 0x3EF JUMPI PUSH0 DUP1 REVERT JUMPDEST DUP1 PUSH4 0x99406C9B EQ PUSH2 0x2D0 JUMPI DUP1 PUSH4 0x9CD441DA EQ PUSH2 0x2E3 JUMPI DUP1 PUSH4 0x9F1E3BF0 EQ PUSH2 0x2F6 JUMPI DUP1 PUSH4 0xA5258210 EQ PUSH2 0x309 JUMPI DUP1 PUSH4 0xB1283E77 EQ PUSH2 0x311 JUMPI DUP1 PUSH4 0xB1B40973 EQ PUSH2 0x3C1 JUMPI PUSH0 DUP1 REVERT JUMPDEST DUP1 PUSH4 0x62D26ED7 GT PUSH2 0x144 JUMPI DUP1 PUSH4 0x6F28507C GT PUSH2 0x11F JUMPI DUP1 PUSH4 0x6F28507C EQ PUSH2 0x29D JUMPI DUP1 PUSH4 0x715018A6 EQ PUSH2 0x2A5 JUMPI DUP1 PUSH4 0x835DC40B EQ PUSH2 0x2AD JUMPI DUP1 PUSH4 0x8DA5CB5B EQ PUSH2 0x2C0 JUMPI PUSH0 DUP1 REVERT JUMPDEST DUP1 PUSH4 0x62D26ED7 EQ PUSH2 0x23F JUMPI DUP1 PUSH4 0x64DF049E EQ PUSH2 0x25F JUMPI DUP1 PUSH4 0x677BD9FF EQ PUSH2 0x28A JUMPI PUSH0 DUP1 REVERT JUMPDEST DUP1 PUSH4 0x11123942 EQ PUSH2 0x18B JUMPI DUP1 PUSH4 0x1AF63283 EQ PUSH2 0x1E4 JUMPI DUP1 PUSH4 0x1FDBC3C8 EQ PUSH2 0x1F9 JUMPI DUP1 PUSH4 0x249D39E9 EQ PUSH2 0x20C JUMPI DUP1 PUSH4 0x406EF2EF EQ PUSH2 0x223 JUMPI DUP1 PUSH4 0x49364D23 EQ PUSH2 0x22C JUMPI JUMPDEST PUSH0 DUP1 REVERT JUMPDEST PUSH2 0x1C4 PUSH2 0x199 CALLDATASIZE PUSH1 0x4 PUSH2 0x1D53 JUMP JUMPDEST PUSH1 0x5 PUSH1 0x20 SWAP1 DUP2 MSTORE PUSH0 SWAP3 DUP4 MSTORE PUSH1 0x40 DUP1 DUP5 KECCAK256 SWAP1 SWAP2 MSTORE SWAP1 DUP3 MSTORE SWAP1 KECCAK256 DUP1 SLOAD PUSH1 0x1 DUP3 ADD SLOAD PUSH1 0x2 SWAP1 SWAP3 ADD SLOAD SWAP1 SWAP2 SWAP1 DUP4 JUMP JUMPDEST PUSH1 0x40 DUP1 MLOAD SWAP4 DUP5 MSTORE PUSH1 0x20 DUP5 ADD SWAP3 SWAP1 SWAP3 MSTORE SWAP1 DUP3 ADD MSTORE PUSH1 0x60 ADD JUMPDEST PUSH1 0x40 MLOAD DUP1 SWAP2 SUB SWAP1 RETURN JUMPDEST PUSH2 0x1F7 PUSH2 0x1F2 CALLDATASIZE PUSH1 0x4 PUSH2 0x1D8D JUMP JUMPDEST PUSH2 0x443 JUMP JUMPDEST STOP JUMPDEST PUSH2 0x1C4 PUSH2 0x207 CALLDATASIZE PUSH1 0x4 PUSH2 0x1D53 JUMP JUMPDEST PUSH2 0x6CF JUMP JUMPDEST PUSH2 0x215 PUSH2 0x2710 DUP2 JUMP JUMPDEST PUSH1 0x40 MLOAD SWAP1 DUP2 MSTORE PUSH1 0x20 ADD PUSH2 0x1DB JUMP JUMPDEST PUSH2 0x215 PUSH1 0x2 SLOAD DUP2 JUMP JUMPDEST PUSH2 0x1F7 PUSH2 0x23A CALLDATASIZE PUSH1 0x4 PUSH2 0x1DBF JUMP JUMPDEST PUSH2 0x775 JUMP JUMPDEST PUSH2 0x252 PUSH2 0x24D CALLDATASIZE PUSH1 0x4 PUSH2 0x1DDF JUMP JUMPDEST PUSH2 0x954 JUMP JUMPDEST PUSH1 0x40 MLOAD PUSH2 0x1DB SWAP2 SWAP1 PUSH2 0x1DF6 JUMP JUMPDEST PUSH1 0x1 SLOAD PUSH2 0x272 SWAP1 PUSH1 0x1 PUSH1 0x1 PUSH1 0xA0 SHL SUB AND DUP2 JUMP JUMPDEST PUSH1 0x40 MLOAD PUSH1 0x1 PUSH1 0x1 PUSH1 0xA0 SHL SUB SWAP1 SWAP2 AND DUP2 MSTORE PUSH1 0x20 ADD PUSH2 0x1DB JUMP JUMPDEST PUSH2 0x1F7 PUSH2 0x298 CALLDATASIZE PUSH1 0x4 PUSH2 0x1DDF JUMP JUMPDEST PUSH2 0x9A3 JUMP JUMPDEST PUSH2 0x215 PUSH1 0xC8 DUP2 JUMP JUMPDEST PUSH2 0x1F7 PUSH2 0xB08 JUMP JUMPDEST PUSH2 0x252 PUSH2 0x2BB CALLDATASIZE PUSH1 0x4 PUSH2 0x1D53 JUMP JUMPDEST PUSH2 0xB1B JUMP JUMPDEST PUSH0 SLOAD PUSH1 0x1 PUSH1 0x1 PUSH1 0xA0 SHL SUB AND PUSH2 0x272 JUMP JUMPDEST PUSH2 0x1F7 PUSH2 0x2DE CALLDATASIZE PUSH1 0x4 PUSH2 0x1DDF JUMP JUMPDEST PUSH2 0xB79 JUMP JUMPDEST PUSH2 0x1F7 PUSH2 0x2F1 CALLDATASIZE PUSH1 0x4 PUSH2 0x1DBF JUMP JUMPDEST PUSH2 0xC66 JUMP JUMPDEST PUSH2 0x215 PUSH2 0x304 CALLDATASIZE PUSH1 0x4 PUSH2 0x1E27 JUMP JUMPDEST PUSH2 0xDA4 JUMP JUMPDEST PUSH2 0x215 PUSH1 0x96 DUP2 JUMP JUMPDEST PUSH2 0x3A8 PUSH2 0x31F CALLDATASIZE PUSH1 0x4 PUSH2 0x1DDF JUMP JUMPDEST PUSH1 0x3 PUSH1 0x20 DUP2 SWAP1 MSTORE PUSH0 SWAP2 DUP3 MSTORE PUSH1 0x40 SWAP1 SWAP2 KECCAK256 DUP1 SLOAD PUSH1 0x1 DUP3 ADD SLOAD PUSH1 0x2 DUP4 ADD SLOAD SWAP4 DUP4 ADD SLOAD PUSH1 0x4 DUP5 ADD SLOAD PUSH1 0x5 DUP6 ADD SLOAD PUSH1 0x6 DUP7 ADD SLOAD PUSH1 0x7 DUP8 ADD SLOAD PUSH1 0x8 SWAP1 SWAP8 ADD SLOAD PUSH1 0x1 PUSH1 0x1 PUSH1 0xA0 SHL SUB SWAP7 DUP8 AND SWAP9 SWAP6 DUP8 AND SWAP8 SWAP7 DUP7 AND SWAP7 PUSH5 0xFFFFFFFFFF PUSH1 0x1 PUSH1 0xA0 SHL DUP9 DIV AND SWAP7 PUSH1 0xFF PUSH1 0x1 PUSH1 0xC8 SHL DUP3 DIV DUP2 AND SWAP8 PUSH1 0x1 PUSH1 0xD0 SHL DUP4 DIV DUP3 AND SWAP8 PUSH1 0x1 PUSH1 0xD8 SHL SWAP1 SWAP4 DIV SWAP1 SWAP2 AND SWAP6 SWAP1 SWAP5 SWAP2 SWAP4 SWAP1 SWAP3 SWAP1 DUP14 JUMP JUMPDEST PUSH1 0x40 MLOAD PUSH2 0x1DB SWAP14 SWAP13 SWAP12 SWAP11 SWAP10 SWAP9 SWAP8 SWAP7 SWAP6 SWAP5 SWAP4 SWAP3 SWAP2 SWAP1 PUSH2 0x1EAE JUMP JUMPDEST PUSH2 0x215 PUSH2 0x3CF CALLDATASIZE PUSH1 0x4 PUSH2 0x1F34 JUMP JUMPDEST PUSH2 0xFD6 JUMP JUMPDEST PUSH2 0x215 PUSH1 0x32 DUP2 JUMP JUMPDEST PUSH2 0x1F7 PUSH2 0x3EA CALLDATASIZE PUSH1 0x4 PUSH2 0x1D8D JUMP JUMPDEST PUSH2 0x10F0 JUMP JUMPDEST PUSH2 0x215 PUSH2 0x3FD CALLDATASIZE PUSH1 0x4 PUSH2 0x1F55 JUMP JUMPDEST PUSH2 0x1415 JUMP JUMPDEST PUSH2 0x215 PUSH1 0x8 DUP2 JUMP JUMPDEST PUSH2 0x1F7 PUSH2 0x418 CALLDATASIZE PUSH1 0x4 PUSH2 0x1F34 JUMP JUMPDEST PUSH2 0x1442 JUMP JUMPDEST PUSH2 0x1F7 PUSH2 0x42B CALLDATASIZE PUSH1 0x4 PUSH2 0x1F77 JUMP JUMPDEST PUSH2 0x15F9 JUMP JUMPDEST PUSH2 0x1F7 PUSH2 0x43E CALLDATASIZE PUSH1 0x4 PUSH2 0x1F77 JUMP JUMPDEST PUSH2 0x1683 JUMP JUMPDEST PUSH0 DUP4 DUP2 MSTORE PUSH1 0x3 PUSH1 0x20 MSTORE PUSH1 0x40 SWAP1 KECCAK256 PUSH2 0x459 DUP2 PUSH2 0x16C5 JUMP JUMPDEST PUSH1 0x2 DUP2 ADD SLOAD PUSH1 0xFF PUSH1 0x1 PUSH1 0xC8 SHL SWAP1 SWAP2 DIV DUP2 AND SWAP1 DUP5 AND LT PUSH2 0x48B JUMPI PUSH1 0x40 MLOAD PUSH4 0xC74A206D PUSH1 0xE0 SHL DUP2 MSTORE PUSH1 0x4 ADD PUSH1 0x40 MLOAD DUP1 SWAP2 SUB SWAP1 REVERT JUMPDEST DUP2 PUSH0 SUB PUSH2 0x4AB JUMPI PUSH1 0x40 MLOAD PUSH4 0x162908E3 PUSH1 0xE1 SHL DUP2 MSTORE PUSH1 0x4 ADD PUSH1 0x40 MLOAD DUP1 SWAP2 SUB SWAP1 REVERT JUMPDEST PUSH1 0x1 DUP2 ADD SLOAD PUSH1 0x1 PUSH1 0x1 PUSH1 0xA0 SHL SUB AND PUSH2 0x4C5 DUP2 CALLER ADDRESS DUP7 PUSH2 0x1735 JUMP JUMPDEST PUSH0 PUSH2 0x2710 PUSH2 0x4D4 PUSH1 0x32 DUP7 PUSH2 0x1FA4 JUMP JUMPDEST PUSH2 0x4DE SWAP2 SWAP1 PUSH2 0x1FBB JUMP JUMPDEST SWAP1 POP PUSH0 PUSH2 0x2710 PUSH2 0x4EF PUSH1 0x96 DUP8 PUSH2 0x1FA4 JUMP JUMPDEST PUSH2 0x4F9 SWAP2 SWAP1 PUSH2 0x1FBB JUMP JUMPDEST SWAP1 POP PUSH0 DUP2 PUSH2 0x507 DUP5 DUP9 PUSH2 0x1FDA JUMP JUMPDEST PUSH2 0x511 SWAP2 SWAP1 PUSH2 0x1FDA JUMP JUMPDEST SWAP1 POP DUP3 ISZERO PUSH2 0x533 JUMPI PUSH1 0x1 SLOAD PUSH2 0x533 SWAP1 PUSH1 0x1 PUSH1 0x1 PUSH1 0xA0 SHL SUB DUP7 DUP2 AND SWAP2 AND DUP6 PUSH2 0x1771 JUMP JUMPDEST PUSH2 0x53D DUP9 DUP4 PUSH2 0x17AB JUMP JUMPDEST DUP1 DUP6 PUSH1 0x6 ADD PUSH0 DUP3 DUP3 SLOAD PUSH2 0x550 SWAP2 SWAP1 PUSH2 0x1FED JUMP JUMPDEST SWAP1 SWAP2 SSTORE POP PUSH0 SWAP1 POP PUSH2 0x562 DUP7 DUP10 DUP5 PUSH2 0x1824 JUMP JUMPDEST SWAP1 POP DUP1 PUSH0 SUB PUSH2 0x584 JUMPI PUSH1 0x40 MLOAD PUSH4 0xE9F3001F PUSH1 0xE0 SHL DUP2 MSTORE PUSH1 0x4 ADD PUSH1 0x40 MLOAD DUP1 SWAP2 SUB SWAP1 REVERT JUMPDEST PUSH0 JUMPDEST PUSH1 0x2 DUP8 ADD SLOAD PUSH1 0xFF PUSH1 0x1 PUSH1 0xC8 SHL SWAP1 SWAP2 DIV DUP2 AND SWAP1 DUP3 AND LT ISZERO PUSH2 0x5D5 JUMPI DUP3 DUP8 PUSH1 0x9 ADD DUP3 PUSH1 0xFF AND PUSH1 0x8 DUP2 LT PUSH2 0x5B9 JUMPI PUSH2 0x5B9 PUSH2 0x2000 JUMP JUMPDEST ADD PUSH0 DUP3 DUP3 SLOAD PUSH2 0x5C8 SWAP2 SWAP1 PUSH2 0x1FED JUMP JUMPDEST SWAP1 SWAP2 SSTORE POP POP PUSH1 0x1 ADD PUSH2 0x586 JUMP JUMPDEST POP DUP1 DUP7 PUSH1 0x9 ADD DUP10 PUSH1 0xFF AND PUSH1 0x8 DUP2 LT PUSH2 0x5EF JUMPI PUSH2 0x5EF PUSH2 0x2000 JUMP JUMPDEST ADD PUSH0 DUP3 DUP3 SLOAD PUSH2 0x5FE SWAP2 SWAP1 PUSH2 0x1FDA JUMP JUMPDEST SWAP1 SWAP2 SSTORE POP POP PUSH0 DUP10 DUP2 MSTORE PUSH1 0x4 PUSH1 0x20 SWAP1 DUP2 MSTORE PUSH1 0x40 DUP1 DUP4 KECCAK256 CALLER DUP5 MSTORE SWAP1 SWAP2 MSTORE SWAP1 KECCAK256 DUP2 SWAP1 PUSH1 0xFF DUP11 AND PUSH1 0x8 DUP2 LT PUSH2 0x631 JUMPI PUSH2 0x631 PUSH2 0x2000 JUMP JUMPDEST ADD PUSH0 DUP3 DUP3 SLOAD PUSH2 0x640 SWAP2 SWAP1 PUSH2 0x1FED JUMP JUMPDEST SWAP1 SWAP2 SSTORE POP DUP2 SWAP1 POP PUSH1 0x11 DUP8 ADD PUSH1 0xFF DUP11 AND PUSH1 0x8 DUP2 LT PUSH2 0x65F JUMPI PUSH2 0x65F PUSH2 0x2000 JUMP JUMPDEST ADD PUSH0 DUP3 DUP3 SLOAD PUSH2 0x66E SWAP2 SWAP1 PUSH2 0x1FED JUMP JUMPDEST SWAP1 SWAP2 SSTORE POP POP PUSH1 0x40 DUP1 MLOAD DUP9 DUP2 MSTORE PUSH1 0x20 DUP2 ADD DUP4 SWAP1 MSTORE SWAP1 DUP2 ADD DUP6 SWAP1 MSTORE PUSH1 0x60 DUP2 ADD DUP5 SWAP1 MSTORE PUSH1 0xFF DUP10 AND SWAP1 CALLER SWAP1 DUP12 SWAP1 PUSH32 0xF306F50E892C3CAFCBF9BE5C1BC70826FCF0DBEB58CC23AA418DAA791BB1B859 SWAP1 PUSH1 0x80 ADD PUSH1 0x40 MLOAD DUP1 SWAP2 SUB SWAP1 LOG4 POP POP POP POP POP POP POP POP POP JUMP JUMPDEST PUSH0 DUP3 DUP2 MSTORE PUSH1 0x3 PUSH1 0x20 SWAP1 DUP2 MSTORE PUSH1 0x40 DUP1 DUP4 KECCAK256 PUSH1 0x5 DUP4 MSTORE DUP2 DUP5 KECCAK256 PUSH1 0x1 PUSH1 0x1 PUSH1 0xA0 SHL SUB DUP7 AND DUP6 MSTORE SWAP1 SWAP3 MSTORE DUP3 KECCAK256 PUSH1 0x4 DUP3 ADD SLOAD DUP2 SLOAD DUP5 SWAP4 DUP5 SWAP4 SWAP1 SWAP3 SWAP1 SWAP2 DUP5 SWAP2 PUSH8 0xDE0B6B3A7640000 SWAP2 PUSH2 0x71C SWAP2 SWAP1 PUSH2 0x1FA4 JUMP JUMPDEST PUSH2 0x726 SWAP2 SWAP1 PUSH2 0x1FBB JUMP JUMPDEST SWAP1 POP PUSH0 DUP3 PUSH1 0x1 ADD SLOAD DUP3 GT PUSH2 0x73A JUMPI PUSH0 PUSH2 0x749 JUMP JUMPDEST PUSH1 0x1 DUP4 ADD SLOAD PUSH2 0x749 SWAP1 DUP4 PUSH2 0x1FDA JUMP JUMPDEST SWAP1 POP DUP3 PUSH0 ADD SLOAD DUP2 DUP5 PUSH1 0x2 ADD SLOAD PUSH2 0x75F SWAP2 SWAP1 PUSH2 0x1FED JUMP JUMPDEST DUP5 PUSH1 0x1 ADD SLOAD SWAP7 POP SWAP7 POP SWAP7 POP POP POP POP POP SWAP3 POP SWAP3 POP SWAP3 JUMP JUMPDEST PUSH0 DUP3 DUP2 MSTORE PUSH1 0x3 PUSH1 0x20 MSTORE PUSH1 0x40 SWAP1 KECCAK256 PUSH1 0x1 PUSH1 0x2 DUP3 ADD SLOAD PUSH1 0x1 PUSH1 0xD0 SHL SWAP1 DIV PUSH1 0xFF AND PUSH1 0x1 DUP2 GT ISZERO PUSH2 0x7A4 JUMPI PUSH2 0x7A4 PUSH2 0x1E7A JUMP JUMPDEST EQ PUSH2 0x7C2 JUMPI PUSH1 0x40 MLOAD PUSH4 0x174B6393 PUSH1 0xE1 SHL DUP2 MSTORE PUSH1 0x4 ADD PUSH1 0x40 MLOAD DUP1 SWAP2 SUB SWAP1 REVERT JUMPDEST DUP2 PUSH0 SUB PUSH2 0x7E2 JUMPI PUSH1 0x40 MLOAD PUSH4 0x162908E3 PUSH1 0xE1 SHL DUP2 MSTORE PUSH1 0x4 ADD PUSH1 0x40 MLOAD DUP1 SWAP2 SUB SWAP1 REVERT JUMPDEST PUSH2 0x7EC DUP4 CALLER PUSH2 0x1906 JUMP JUMPDEST PUSH0 DUP4 DUP2 MSTORE PUSH1 0x5 PUSH1 0x20 SWAP1 DUP2 MSTORE PUSH1 0x40 DUP1 DUP4 KECCAK256 CALLER DUP5 MSTORE SWAP1 SWAP2 MSTORE SWAP1 KECCAK256 DUP1 SLOAD DUP4 GT ISZERO PUSH2 0x826 JUMPI PUSH1 0x40 MLOAD PUSH4 0x6180F03F PUSH1 0xE1 SHL DUP2 MSTORE PUSH1 0x4 ADD PUSH1 0x40 MLOAD DUP1 SWAP2 SUB SWAP1 REVERT JUMPDEST PUSH0 DUP3 PUSH1 0x3 ADD SLOAD DUP5 DUP5 PUSH1 0x8 ADD SLOAD PUSH2 0x83C SWAP2 SWAP1 PUSH2 0x1FA4 JUMP JUMPDEST PUSH2 0x846 SWAP2 SWAP1 PUSH2 0x1FBB JUMP JUMPDEST SWAP1 POP DUP1 PUSH0 SUB PUSH2 0x868 JUMPI PUSH1 0x40 MLOAD PUSH4 0x6180F03F PUSH1 0xE1 SHL DUP2 MSTORE PUSH1 0x4 ADD PUSH1 0x40 MLOAD DUP1 SWAP2 SUB SWAP1 REVERT JUMPDEST DUP4 DUP3 PUSH0 ADD PUSH0 DUP3 DUP3 SLOAD PUSH2 0x87A SWAP2 SWAP1 PUSH2 0x1FDA JUMP JUMPDEST SWAP1 SWAP2 SSTORE POP POP PUSH1 0x4 DUP4 ADD SLOAD DUP3 SLOAD PUSH8 0xDE0B6B3A7640000 SWAP2 PUSH2 0x899 SWAP2 PUSH2 0x1FA4 JUMP JUMPDEST PUSH2 0x8A3 SWAP2 SWAP1 PUSH2 0x1FBB JUMP JUMPDEST DUP3 PUSH1 0x1 ADD DUP2 SWAP1 SSTORE POP DUP4 DUP4 PUSH1 0x3 ADD PUSH0 DUP3 DUP3 SLOAD PUSH2 0x8BE SWAP2 SWAP1 PUSH2 0x1FDA JUMP JUMPDEST SWAP3 POP POP DUP2 SWAP1 SSTORE POP DUP1 DUP4 PUSH1 0x8 ADD PUSH0 DUP3 DUP3 SLOAD PUSH2 0x8D8 SWAP2 SWAP1 PUSH2 0x1FDA JUMP JUMPDEST SWAP3 POP POP DUP2 SWAP1 SSTORE POP DUP1 DUP4 PUSH1 0x6 ADD PUSH0 DUP3 DUP3 SLOAD PUSH2 0x8F2 SWAP2 SWAP1 PUSH2 0x1FDA JUMP JUMPDEST SWAP1 SWAP2 SSTORE POP POP PUSH1 0x1 DUP4 ADD SLOAD PUSH2 0x910 SWAP1 PUSH1 0x1 PUSH1 0x1 PUSH1 0xA0 SHL SUB AND CALLER DUP4 PUSH2 0x1771 JUMP JUMPDEST PUSH1 0x40 DUP1 MLOAD DUP3 DUP2 MSTORE PUSH1 0x20 DUP2 ADD DUP7 SWAP1 MSTORE CALLER SWAP2 DUP8 SWAP2 PUSH32 0xD9D3EB4A1B9584FAE8DE423BFBA2F6E6C259CE063158B066A17AE59BDFB36957 SWAP2 ADD PUSH1 0x40 MLOAD DUP1 SWAP2 SUB SWAP1 LOG3 POP POP POP POP POP JUMP JUMPDEST PUSH2 0x95C PUSH2 0x1D19 JUMP JUMPDEST PUSH0 DUP3 DUP2 MSTORE PUSH1 0x3 PUSH1 0x20 MSTORE PUSH1 0x40 SWAP1 DUP2 SWAP1 KECCAK256 DUP2 MLOAD PUSH2 0x100 DUP2 ADD SWAP1 SWAP3 MSTORE PUSH1 0x9 ADD PUSH1 0x8 DUP3 DUP3 DUP3 PUSH1 0x20 MUL DUP3 ADD SWAP2 JUMPDEST DUP2 SLOAD DUP2 MSTORE PUSH1 0x20 ADD SWAP1 PUSH1 0x1 ADD SWAP1 DUP1 DUP4 GT PUSH2 0x984 JUMPI POP POP POP POP POP SWAP1 POP SWAP2 SWAP1 POP JUMP JUMPDEST PUSH0 DUP2 DUP2 MSTORE PUSH1 0x3 PUSH1 0x20 MSTORE PUSH1 0x40 SWAP1 KECCAK256 PUSH1 0x1 PUSH1 0x2 DUP3 ADD SLOAD PUSH1 0x1 PUSH1 0xD0 SHL SWAP1 DIV PUSH1 0xFF AND PUSH1 0x1 DUP2 GT ISZERO PUSH2 0x9D2 JUMPI PUSH2 0x9D2 PUSH2 0x1E7A JUMP JUMPDEST EQ PUSH2 0x9F0 JUMPI PUSH1 0x40 MLOAD PUSH4 0x174B6393 PUSH1 0xE1 SHL DUP2 MSTORE PUSH1 0x4 ADD PUSH1 0x40 MLOAD DUP1 SWAP2 SUB SWAP1 REVERT JUMPDEST PUSH1 0x2 DUP2 ADD SLOAD PUSH0 DUP4 DUP2 MSTORE PUSH1 0x4 PUSH1 0x20 SWAP1 DUP2 MSTORE PUSH1 0x40 DUP1 DUP4 KECCAK256 CALLER DUP5 MSTORE SWAP1 SWAP2 MSTORE DUP2 KECCAK256 PUSH1 0x1 PUSH1 0xD8 SHL SWAP1 SWAP3 DIV PUSH1 0xFF AND SWAP2 DUP3 PUSH1 0x8 DUP2 LT PUSH2 0xA2A JUMPI PUSH2 0xA2A PUSH2 0x2000 JUMP JUMPDEST ADD SLOAD SWAP1 POP DUP1 PUSH0 SUB PUSH2 0xA4E JUMPI PUSH1 0x40 MLOAD PUSH4 0x30A748D3 PUSH1 0xE1 SHL DUP2 MSTORE PUSH1 0x4 ADD PUSH1 0x40 MLOAD DUP1 SWAP2 SUB SWAP1 REVERT JUMPDEST PUSH0 DUP5 DUP2 MSTORE PUSH1 0x4 PUSH1 0x20 SWAP1 DUP2 MSTORE PUSH1 0x40 DUP1 DUP4 KECCAK256 CALLER DUP5 MSTORE SWAP1 SWAP2 MSTORE DUP2 KECCAK256 PUSH1 0xFF DUP5 AND PUSH1 0x8 DUP2 LT PUSH2 0xA7A JUMPI PUSH2 0xA7A PUSH2 0x2000 JUMP JUMPDEST ADD DUP2 SWAP1 SSTORE POP DUP1 DUP4 PUSH1 0x7 ADD PUSH0 DUP3 DUP3 SLOAD PUSH2 0xA92 SWAP2 SWAP1 PUSH2 0x1FDA JUMP JUMPDEST SWAP3 POP POP DUP2 SWAP1 SSTORE POP DUP1 DUP4 PUSH1 0x6 ADD PUSH0 DUP3 DUP3 SLOAD PUSH2 0xAAC SWAP2 SWAP1 PUSH2 0x1FDA JUMP JUMPDEST SWAP1 SWAP2 SSTORE POP POP PUSH1 0x1 DUP4 ADD SLOAD PUSH2 0xACA SWAP1 PUSH1 0x1 PUSH1 0x1 PUSH1 0xA0 SHL SUB AND CALLER DUP4 PUSH2 0x1771 JUMP JUMPDEST PUSH1 0x40 MLOAD DUP2 DUP2 MSTORE CALLER SWAP1 DUP6 SWAP1 PUSH32 0x5380CF6FE903B40C6D5A9E0DFBCA2F3A423F0A21520B4D5947ED5169BDBA946D SWAP1 PUSH1 0x20 ADD JUMPDEST PUSH1 0x40 MLOAD DUP1 SWAP2 SUB SWAP1 LOG3 POP POP POP POP JUMP JUMPDEST PUSH2 0xB10 PUSH2 0x19AD JUMP JUMPDEST PUSH2 0xB19 PUSH0 PUSH2 0x19D9 JUMP JUMPDEST JUMP JUMPDEST PUSH2 0xB23 PUSH2 0x1D19 JUMP JUMPDEST PUSH0 DUP4 DUP2 MSTORE PUSH1 0x4 PUSH1 0x20 SWAP1 DUP2 MSTORE PUSH1 0x40 DUP1 DUP4 KECCAK256 PUSH1 0x1 PUSH1 0x1 PUSH1 0xA0 SHL SUB DUP7 AND DUP5 MSTORE SWAP1 SWAP2 MSTORE SWAP1 DUP2 SWAP1 KECCAK256 DUP2 MLOAD PUSH2 0x100 DUP2 ADD SWAP3 DUP4 SWAP1 MSTORE SWAP2 PUSH1 0x8 SWAP1 DUP3 DUP5 JUMPDEST DUP2 SLOAD DUP2 MSTORE PUSH1 0x20 ADD SWAP1 PUSH1 0x1 ADD SWAP1 DUP1 DUP4 GT PUSH2 0xB58 JUMPI POP POP POP POP POP SWAP1 POP JUMPDEST SWAP3 SWAP2 POP POP JUMP JUMPDEST PUSH0 DUP2 DUP2 MSTORE PUSH1 0x3 PUSH1 0x20 MSTORE PUSH1 0x40 SWAP1 KECCAK256 PUSH2 0xB90 DUP3 CALLER PUSH2 0x1906 JUMP JUMPDEST PUSH0 DUP3 DUP2 MSTORE PUSH1 0x5 PUSH1 0x20 SWAP1 DUP2 MSTORE PUSH1 0x40 DUP1 DUP4 KECCAK256 CALLER DUP5 MSTORE SWAP1 SWAP2 MSTORE DUP2 KECCAK256 PUSH1 0x2 DUP2 ADD SLOAD SWAP1 SWAP2 DUP2 SWAP1 SUB PUSH2 0xBCF JUMPI PUSH1 0x40 MLOAD PUSH4 0x54A89179 PUSH1 0xE0 SHL DUP2 MSTORE PUSH1 0x4 ADD PUSH1 0x40 MLOAD DUP1 SWAP2 SUB SWAP1 REVERT JUMPDEST PUSH0 PUSH1 0x2 DUP4 ADD SSTORE PUSH1 0x4 DUP4 ADD SLOAD DUP3 SLOAD PUSH8 0xDE0B6B3A7640000 SWAP2 PUSH2 0xBEF SWAP2 PUSH2 0x1FA4 JUMP JUMPDEST PUSH2 0xBF9 SWAP2 SWAP1 PUSH2 0x1FBB JUMP JUMPDEST DUP3 PUSH1 0x1 ADD DUP2 SWAP1 SSTORE POP DUP1 DUP4 PUSH1 0x5 ADD PUSH0 DUP3 DUP3 SLOAD PUSH2 0xC14 SWAP2 SWAP1 PUSH2 0x1FDA JUMP JUMPDEST SWAP1 SWAP2 SSTORE POP POP PUSH1 0x1 DUP4 ADD SLOAD PUSH2 0xC32 SWAP1 PUSH1 0x1 PUSH1 0x1 PUSH1 0xA0 SHL SUB AND CALLER DUP4 PUSH2 0x1771 JUMP JUMPDEST PUSH1 0x40 MLOAD DUP2 DUP2 MSTORE CALLER SWAP1 DUP6 SWAP1 PUSH32 0x564D03CA8B35E10BC8A440F1B3F546629000B00F689200A14CA91A979D2F8D75 SWAP1 PUSH1 0x20 ADD PUSH2 0xAFA JUMP JUMPDEST PUSH0 DUP3 DUP2 MSTORE PUSH1 0x3 PUSH1 0x20 MSTORE PUSH1 0x40 SWAP1 KECCAK256 PUSH2 0xC7C DUP2 PUSH2 0x16C5 JUMP JUMPDEST DUP2 PUSH0 SUB PUSH2 0xC9C JUMPI PUSH1 0x40 MLOAD PUSH4 0x162908E3 PUSH1 0xE1 SHL DUP2 MSTORE PUSH1 0x4 ADD PUSH1 0x40 MLOAD DUP1 SWAP2 SUB SWAP1 REVERT JUMPDEST PUSH2 0xCA6 DUP4 CALLER PUSH2 0x1906 JUMP JUMPDEST PUSH0 DUP2 PUSH1 0x3 ADD SLOAD PUSH0 EQ DUP1 PUSH2 0xCBB JUMPI POP PUSH1 0x6 DUP3 ADD SLOAD ISZERO JUMPDEST ISZERO PUSH2 0xCC7 JUMPI POP DUP2 PUSH2 0xCE8 JUMP JUMPDEST PUSH1 0x6 DUP3 ADD SLOAD PUSH1 0x3 DUP4 ADD SLOAD PUSH2 0xCDB SWAP1 DUP6 PUSH2 0x1FA4 JUMP JUMPDEST PUSH2 0xCE5 SWAP2 SWAP1 PUSH2 0x1FBB JUMP JUMPDEST SWAP1 POP JUMPDEST DUP1 PUSH0 SUB PUSH2 0xD08 JUMPI PUSH1 0x40 MLOAD PUSH4 0x6180F03F PUSH1 0xE1 SHL DUP2 MSTORE PUSH1 0x4 ADD PUSH1 0x40 MLOAD DUP1 SWAP2 SUB SWAP1 REVERT JUMPDEST PUSH1 0x1 DUP3 ADD SLOAD PUSH2 0xD22 SWAP1 PUSH1 0x1 PUSH1 0x1 PUSH1 0xA0 SHL SUB AND CALLER ADDRESS DUP7 PUSH2 0x1735 JUMP JUMPDEST DUP1 DUP3 PUSH1 0x3 ADD PUSH0 DUP3 DUP3 SLOAD PUSH2 0xD35 SWAP2 SWAP1 PUSH2 0x1FED JUMP JUMPDEST SWAP3 POP POP DUP2 SWAP1 SSTORE POP DUP3 DUP3 PUSH1 0x6 ADD PUSH0 DUP3 DUP3 SLOAD PUSH2 0xD4F SWAP2 SWAP1 PUSH2 0x1FED JUMP JUMPDEST SWAP1 SWAP2 SSTORE POP PUSH2 0xD5F SWAP1 POP DUP3 DUP5 PUSH2 0x1A28 JUMP JUMPDEST PUSH2 0xD6A DUP5 CALLER DUP4 PUSH2 0x1AE5 JUMP JUMPDEST PUSH1 0x40 DUP1 MLOAD DUP5 DUP2 MSTORE PUSH1 0x20 DUP2 ADD DUP4 SWAP1 MSTORE CALLER SWAP2 DUP7 SWAP2 PUSH32 0x4F523F2D8E587B404D27E399464F42A7FFC415DA39A6130A6E0E6D3BE9128326 SWAP2 ADD PUSH2 0xAFA JUMP JUMPDEST PUSH0 PUSH1 0x1 PUSH1 0x1 PUSH1 0xA0 SHL SUB DUP7 AND PUSH2 0xDCC JUMPI PUSH1 0x40 MLOAD PUSH4 0x4E469669 PUSH1 0xE1 SHL DUP2 MSTORE PUSH1 0x4 ADD PUSH1 0x40 MLOAD DUP1 SWAP2 SUB SWAP1 REVERT JUMPDEST PUSH1 0x1 PUSH1 0x1 PUSH1 0xA0 SHL SUB DUP3 AND PUSH2 0xDF3 JUMPI PUSH1 0x40 MLOAD PUSH4 0x1B68FD95 PUSH1 0xE2 SHL DUP2 MSTORE PUSH1 0x4 ADD PUSH1 0x40 MLOAD DUP1 SWAP2 SUB SWAP1 REVERT JUMPDEST PUSH1 0x2 DUP6 PUSH1 0xFF AND LT DUP1 PUSH2 0xE08 JUMPI POP PUSH1 0x8 DUP6 PUSH1 0xFF AND GT JUMPDEST ISZERO PUSH2 0xE26 JUMPI PUSH1 0x40 MLOAD PUSH4 0x162CC9E3 PUSH1 0xE1 SHL DUP2 MSTORE PUSH1 0x4 ADD PUSH1 0x40 MLOAD DUP1 SWAP2 SUB SWAP1 REVERT JUMPDEST TIMESTAMP DUP5 GT PUSH2 0xE46 JUMPI PUSH1 0x40 MLOAD PUSH4 0xB7D09497 PUSH1 0xE0 SHL DUP2 MSTORE PUSH1 0x4 ADD PUSH1 0x40 MLOAD DUP1 SWAP2 SUB SWAP1 REVERT JUMPDEST DUP3 PUSH0 SUB PUSH2 0xE66 JUMPI PUSH1 0x40 MLOAD PUSH4 0x162908E3 PUSH1 0xE1 SHL DUP2 MSTORE PUSH1 0x4 ADD PUSH1 0x40 MLOAD DUP1 SWAP2 SUB SWAP1 REVERT JUMPDEST PUSH2 0xE7B PUSH1 0x1 PUSH1 0x1 PUSH1 0xA0 SHL SUB DUP8 AND CALLER ADDRESS DUP7 PUSH2 0x1735 JUMP JUMPDEST PUSH1 0x2 DUP1 SLOAD SWAP1 PUSH0 PUSH2 0xE8A DUP4 PUSH2 0x2014 JUMP JUMPDEST SWAP1 SWAP2 SSTORE POP PUSH0 DUP2 DUP2 MSTORE PUSH1 0x3 PUSH1 0x20 DUP2 SWAP1 MSTORE PUSH1 0x40 SWAP1 SWAP2 KECCAK256 DUP1 SLOAD CALLER PUSH1 0x1 PUSH1 0x1 PUSH1 0xA0 SHL SUB NOT SWAP2 DUP3 AND OR DUP3 SSTORE PUSH1 0x1 DUP3 ADD DUP1 SLOAD SWAP1 SWAP2 AND PUSH1 0x1 PUSH1 0x1 PUSH1 0xA0 SHL SUB DUP12 DUP2 AND SWAP2 SWAP1 SWAP2 OR SWAP1 SWAP2 SSTORE PUSH1 0x2 DUP3 ADD DUP1 SLOAD PUSH2 0xFFFF PUSH1 0xC8 SHL NOT SWAP3 DUP9 AND PUSH1 0x1 PUSH1 0x1 PUSH1 0xC8 SHL SUB NOT SWAP1 SWAP2 AND OR PUSH1 0x1 PUSH1 0xA0 SHL PUSH5 0xFFFFFFFFFF DUP12 AND MUL OR SWAP2 SWAP1 SWAP2 AND PUSH1 0xFF PUSH1 0xD0 SHL NOT PUSH1 0x1 PUSH1 0xC8 SHL PUSH1 0xFF DUP13 AND MUL AND OR SWAP1 SSTORE SWAP1 DUP2 ADD DUP6 SWAP1 SSTORE PUSH1 0x6 DUP2 ADD DUP6 SWAP1 SSTORE SWAP1 SWAP2 POP PUSH2 0xF29 DUP2 DUP6 PUSH2 0x1A28 JUMP JUMPDEST PUSH2 0xF34 DUP3 CALLER DUP7 PUSH2 0x1AE5 JUMP JUMPDEST PUSH1 0x40 DUP1 MLOAD PUSH1 0xFF DUP9 AND DUP2 MSTORE PUSH1 0x20 DUP2 ADD DUP7 SWAP1 MSTORE SWAP1 DUP2 ADD DUP7 SWAP1 MSTORE PUSH1 0x1 PUSH1 0x1 PUSH1 0xA0 SHL SUB DUP5 DUP2 AND PUSH1 0x60 DUP4 ADD MSTORE DUP9 AND SWAP1 CALLER SWAP1 DUP5 SWAP1 PUSH32 0xB0D6B0E6C566CDE6CE84F22BAF9C21D8DCDE82D797663EBB76A6918DC76426FA SWAP1 PUSH1 0x80 ADD PUSH1 0x40 MLOAD DUP1 SWAP2 SUB SWAP1 LOG4 PUSH1 0x40 DUP1 MLOAD DUP6 DUP2 MSTORE PUSH1 0x20 DUP2 ADD DUP7 SWAP1 MSTORE CALLER SWAP2 DUP5 SWAP2 PUSH32 0x4F523F2D8E587B404D27E399464F42A7FFC415DA39A6130A6E0E6D3BE9128326 SWAP2 ADD PUSH1 0x40 MLOAD DUP1 SWAP2 SUB SWAP1 LOG3 POP SWAP6 SWAP5 POP POP POP POP POP JUMP JUMPDEST PUSH0 DUP3 DUP2 MSTORE PUSH1 0x3 PUSH1 0x20 MSTORE PUSH1 0x40 DUP2 KECCAK256 PUSH1 0x2 DUP2 ADD SLOAD PUSH1 0xFF PUSH1 0x1 PUSH1 0xC8 SHL SWAP1 SWAP2 DIV DUP2 AND SWAP1 DUP5 AND LT PUSH2 0x1015 JUMPI PUSH1 0x40 MLOAD PUSH4 0xC74A206D PUSH1 0xE0 SHL DUP2 MSTORE PUSH1 0x4 ADD PUSH1 0x40 MLOAD DUP1 SWAP2 SUB SWAP1 REVERT JUMPDEST PUSH15 0xC097CE7BC90715B34B9F1000000000 PUSH0 DUP1 JUMPDEST PUSH1 0x2 DUP5 ADD SLOAD PUSH1 0xFF PUSH1 0x1 PUSH1 0xC8 SHL SWAP1 SWAP2 DIV DUP2 AND SWAP1 DUP3 AND LT ISZERO PUSH2 0x1092 JUMPI PUSH0 DUP5 PUSH1 0x9 ADD DUP3 PUSH1 0xFF AND PUSH1 0x8 DUP2 LT PUSH2 0x105B JUMPI PUSH2 0x105B PUSH2 0x2000 JUMP JUMPDEST ADD SLOAD SWAP1 POP DUP1 PUSH0 SUB PUSH2 0x1073 JUMPI PUSH0 SWAP6 POP POP POP POP POP POP PUSH2 0xB73 JUMP JUMPDEST PUSH2 0x107D DUP2 DUP6 PUSH2 0x1FBB JUMP JUMPDEST PUSH2 0x1087 SWAP1 DUP5 PUSH2 0x1FED JUMP JUMPDEST SWAP3 POP POP PUSH1 0x1 ADD PUSH2 0x1028 JUMP JUMPDEST POP DUP1 PUSH0 SUB PUSH2 0x10A5 JUMPI PUSH0 SWAP4 POP POP POP POP PUSH2 0xB73 JUMP JUMPDEST DUP1 DUP4 PUSH1 0x9 ADD DUP7 PUSH1 0xFF AND PUSH1 0x8 DUP2 LT PUSH2 0x10BE JUMPI PUSH2 0x10BE PUSH2 0x2000 JUMP JUMPDEST ADD SLOAD PUSH2 0x10CA SWAP1 DUP5 PUSH2 0x1FBB JUMP JUMPDEST PUSH2 0x10DC SWAP1 PUSH8 0xDE0B6B3A7640000 PUSH2 0x1FA4 JUMP JUMPDEST PUSH2 0x10E6 SWAP2 SWAP1 PUSH2 0x1FBB JUMP JUMPDEST SWAP7 SWAP6 POP POP POP POP POP POP JUMP JUMPDEST PUSH0 DUP4 DUP2 MSTORE PUSH1 0x3 PUSH1 0x20 MSTORE PUSH1 0x40 SWAP1 KECCAK256 PUSH2 0x1106 DUP2 PUSH2 0x16C5 JUMP JUMPDEST PUSH1 0x2 DUP2 ADD SLOAD PUSH1 0xFF PUSH1 0x1 PUSH1 0xC8 SHL SWAP1 SWAP2 DIV DUP2 AND SWAP1 DUP5 AND LT PUSH2 0x1138 JUMPI PUSH1 0x40 MLOAD PUSH4 0xC74A206D PUSH1 0xE0 SHL DUP2 MSTORE PUSH1 0x4 ADD PUSH1 0x40 MLOAD DUP1 SWAP2 SUB SWAP1 REVERT JUMPDEST DUP2 PUSH0 SUB PUSH2 0x1158 JUMPI PUSH1 0x40 MLOAD PUSH4 0x162908E3 PUSH1 0xE1 SHL DUP2 MSTORE PUSH1 0x4 ADD PUSH1 0x40 MLOAD DUP1 SWAP2 SUB SWAP1 REVERT JUMPDEST PUSH0 DUP5 DUP2 MSTORE PUSH1 0x4 PUSH1 0x20 SWAP1 DUP2 MSTORE PUSH1 0x40 DUP1 DUP4 KECCAK256 CALLER DUP5 MSTORE SWAP1 SWAP2 MSTORE SWAP1 KECCAK256 DUP3 SWAP1 PUSH1 0xFF DUP6 AND PUSH1 0x8 DUP2 LT PUSH2 0x1186 JUMPI PUSH2 0x1186 PUSH2 0x2000 JUMP JUMPDEST ADD SLOAD LT ISZERO PUSH2 0x11A7 JUMPI PUSH1 0x40 MLOAD PUSH4 0x3C57B485 PUSH1 0xE2 SHL DUP2 MSTORE PUSH1 0x4 ADD PUSH1 0x40 MLOAD DUP1 SWAP2 SUB SWAP1 REVERT JUMPDEST PUSH0 PUSH2 0x11B3 DUP3 DUP6 DUP6 PUSH2 0x1B4F JUMP JUMPDEST SWAP1 POP DUP1 PUSH0 SUB PUSH2 0x11D5 JUMPI PUSH1 0x40 MLOAD PUSH4 0x5788801B PUSH1 0xE1 SHL DUP2 MSTORE PUSH1 0x4 ADD PUSH1 0x40 MLOAD DUP1 SWAP2 SUB SWAP1 REVERT JUMPDEST DUP1 DUP3 PUSH1 0x6 ADD SLOAD LT ISZERO PUSH2 0x11FA JUMPI PUSH1 0x40 MLOAD PUSH4 0xBA393BB PUSH1 0xE4 SHL DUP2 MSTORE PUSH1 0x4 ADD PUSH1 0x40 MLOAD DUP1 SWAP2 SUB SWAP1 REVERT JUMPDEST PUSH0 PUSH2 0x2710 PUSH2 0x1209 PUSH1 0x32 DUP5 PUSH2 0x1FA4 JUMP JUMPDEST PUSH2 0x1213 SWAP2 SWAP1 PUSH2 0x1FBB JUMP JUMPDEST SWAP1 POP PUSH0 PUSH2 0x2710 PUSH2 0x1224 PUSH1 0x96 DUP6 PUSH2 0x1FA4 JUMP JUMPDEST PUSH2 0x122E SWAP2 SWAP1 PUSH2 0x1FBB JUMP JUMPDEST SWAP1 POP PUSH0 DUP2 PUSH2 0x123C DUP5 DUP7 PUSH2 0x1FDA JUMP JUMPDEST PUSH2 0x1246 SWAP2 SWAP1 PUSH2 0x1FDA JUMP JUMPDEST SWAP1 POP DUP6 DUP6 PUSH1 0x9 ADD DUP9 PUSH1 0xFF AND PUSH1 0x8 DUP2 LT PUSH2 0x1261 JUMPI PUSH2 0x1261 PUSH2 0x2000 JUMP JUMPDEST ADD PUSH0 DUP3 DUP3 SLOAD PUSH2 0x1270 SWAP2 SWAP1 PUSH2 0x1FED JUMP JUMPDEST SWAP1 SWAP2 SSTORE POP POP PUSH1 0x2 DUP6 ADD SLOAD PUSH0 SWAP1 PUSH2 0x1290 SWAP1 PUSH1 0x1 PUSH1 0xC8 SHL SWAP1 DIV PUSH1 0xFF AND DUP7 PUSH2 0x1FBB JUMP JUMPDEST SWAP1 POP PUSH0 JUMPDEST PUSH1 0x2 DUP8 ADD SLOAD PUSH1 0xFF PUSH1 0x1 PUSH1 0xC8 SHL SWAP1 SWAP2 DIV DUP2 AND SWAP1 DUP3 AND LT ISZERO PUSH2 0x12E3 JUMPI DUP2 DUP8 PUSH1 0x9 ADD DUP3 PUSH1 0xFF AND PUSH1 0x8 DUP2 LT PUSH2 0x12C7 JUMPI PUSH2 0x12C7 PUSH2 0x2000 JUMP JUMPDEST ADD PUSH0 DUP3 DUP3 SLOAD PUSH2 0x12D6 SWAP2 SWAP1 PUSH2 0x1FDA JUMP JUMPDEST SWAP1 SWAP2 SSTORE POP POP PUSH1 0x1 ADD PUSH2 0x1294 JUMP JUMPDEST POP DUP5 DUP7 PUSH1 0x6 ADD PUSH0 DUP3 DUP3 SLOAD PUSH2 0x12F7 SWAP2 SWAP1 PUSH2 0x1FDA JUMP JUMPDEST SWAP1 SWAP2 SSTORE POP POP PUSH0 DUP10 DUP2 MSTORE PUSH1 0x4 PUSH1 0x20 SWAP1 DUP2 MSTORE PUSH1 0x40 DUP1 DUP4 KECCAK256 CALLER DUP5 MSTORE SWAP1 SWAP2 MSTORE SWAP1 KECCAK256 DUP8 SWAP1 PUSH1 0xFF DUP11 AND PUSH1 0x8 DUP2 LT PUSH2 0x132A JUMPI PUSH2 0x132A PUSH2 0x2000 JUMP JUMPDEST ADD PUSH0 DUP3 DUP3 SLOAD PUSH2 0x1339 SWAP2 SWAP1 PUSH2 0x1FDA JUMP JUMPDEST SWAP1 SWAP2 SSTORE POP DUP8 SWAP1 POP PUSH1 0x11 DUP8 ADD PUSH1 0xFF DUP11 AND PUSH1 0x8 DUP2 LT PUSH2 0x1358 JUMPI PUSH2 0x1358 PUSH2 0x2000 JUMP JUMPDEST ADD PUSH0 DUP3 DUP3 SLOAD PUSH2 0x1367 SWAP2 SWAP1 PUSH2 0x1FDA JUMP JUMPDEST SWAP1 SWAP2 SSTORE POP POP PUSH1 0x1 DUP7 ADD SLOAD PUSH1 0x1 PUSH1 0x1 PUSH1 0xA0 SHL SUB AND DUP5 ISZERO PUSH2 0x139A JUMPI PUSH1 0x1 SLOAD PUSH2 0x139A SWAP1 PUSH1 0x1 PUSH1 0x1 PUSH1 0xA0 SHL SUB DUP4 DUP2 AND SWAP2 AND DUP8 PUSH2 0x1771 JUMP JUMPDEST PUSH2 0x13A4 DUP11 DUP6 PUSH2 0x17AB JUMP JUMPDEST PUSH2 0x13B8 PUSH1 0x1 PUSH1 0x1 PUSH1 0xA0 SHL SUB DUP3 AND CALLER DUP6 PUSH2 0x1771 JUMP JUMPDEST PUSH1 0x40 DUP1 MLOAD DUP10 DUP2 MSTORE PUSH1 0x20 DUP2 ADD DUP6 SWAP1 MSTORE SWAP1 DUP2 ADD DUP7 SWAP1 MSTORE PUSH1 0x60 DUP2 ADD DUP6 SWAP1 MSTORE PUSH1 0xFF DUP11 AND SWAP1 CALLER SWAP1 DUP13 SWAP1 PUSH32 0xB62A4504BEFD6B99464AFFDB6BD0D6528DD160F73CE088071D37C731E650D779 SWAP1 PUSH1 0x80 ADD PUSH1 0x40 MLOAD DUP1 SWAP2 SUB SWAP1 LOG4 POP POP POP POP POP POP POP POP POP POP JUMP JUMPDEST PUSH1 0x4 PUSH1 0x20 MSTORE DUP3 PUSH0 MSTORE PUSH1 0x40 PUSH0 KECCAK256 PUSH1 0x20 MSTORE DUP2 PUSH0 MSTORE PUSH1 0x40 PUSH0 KECCAK256 DUP2 PUSH1 0x8 DUP2 LT PUSH2 0x1438 JUMPI PUSH0 DUP1 REVERT JUMPDEST ADD SLOAD SWAP3 POP DUP4 SWAP2 POP POP JUMP JUMPDEST PUSH0 DUP3 DUP2 MSTORE PUSH1 0x3 PUSH1 0x20 MSTORE PUSH1 0x40 DUP2 KECCAK256 SWAP1 PUSH1 0x2 DUP3 ADD SLOAD PUSH1 0x1 PUSH1 0xD0 SHL SWAP1 DIV PUSH1 0xFF AND PUSH1 0x1 DUP2 GT ISZERO PUSH2 0x1470 JUMPI PUSH2 0x1470 PUSH2 0x1E7A JUMP JUMPDEST EQ PUSH2 0x148E JUMPI PUSH1 0x40 MLOAD PUSH4 0x3A67D481 PUSH1 0xE0 SHL DUP2 MSTORE PUSH1 0x4 ADD PUSH1 0x40 MLOAD DUP1 SWAP2 SUB SWAP1 REVERT JUMPDEST PUSH1 0x2 DUP2 ADD SLOAD PUSH1 0x1 PUSH1 0xA0 SHL SWAP1 DIV PUSH5 0xFFFFFFFFFF AND TIMESTAMP LT ISZERO PUSH2 0x14C1 JUMPI PUSH1 0x40 MLOAD PUSH4 0x6CCC842D PUSH1 0xE0 SHL DUP2 MSTORE PUSH1 0x4 ADD PUSH1 0x40 MLOAD DUP1 SWAP2 SUB SWAP1 REVERT JUMPDEST PUSH1 0x2 DUP2 ADD SLOAD PUSH1 0xFF PUSH1 0x1 PUSH1 0xC8 SHL SWAP1 SWAP2 DIV DUP2 AND SWAP1 DUP4 AND LT PUSH2 0x14F3 JUMPI PUSH1 0x40 MLOAD PUSH4 0xC74A206D PUSH1 0xE0 SHL DUP2 MSTORE PUSH1 0x4 ADD PUSH1 0x40 MLOAD DUP1 SWAP2 SUB SWAP1 REVERT JUMPDEST PUSH1 0x2 DUP2 ADD SLOAD PUSH1 0x1 PUSH1 0x1 PUSH1 0xA0 SHL SUB AND CALLER EQ DUP1 ISZERO SWAP1 PUSH2 0x151A JUMPI POP PUSH0 SLOAD PUSH1 0x1 PUSH1 0x1 PUSH1 0xA0 SHL SUB AND CALLER EQ ISZERO JUMPDEST ISZERO PUSH2 0x1538 JUMPI PUSH1 0x40 MLOAD PUSH4 0x5D154FE1 PUSH1 0xE1 SHL DUP2 MSTORE PUSH1 0x4 ADD PUSH1 0x40 MLOAD DUP1 SWAP2 SUB SWAP1 REVERT JUMPDEST PUSH0 DUP2 PUSH1 0x11 ADD DUP4 PUSH1 0xFF AND PUSH1 0x8 DUP2 LT PUSH2 0x1551 JUMPI PUSH2 0x1551 PUSH2 0x2000 JUMP JUMPDEST ADD SLOAD SWAP1 POP DUP1 DUP3 PUSH1 0x6 ADD SLOAD LT ISZERO PUSH2 0x157A JUMPI PUSH1 0x40 MLOAD PUSH4 0xBA393BB PUSH1 0xE4 SHL DUP2 MSTORE PUSH1 0x4 ADD PUSH1 0x40 MLOAD DUP1 SWAP2 SUB SWAP1 REVERT JUMPDEST PUSH1 0x2 DUP3 ADD DUP1 SLOAD PUSH1 0xFF DUP6 AND PUSH1 0x1 PUSH1 0xD8 SHL MUL PUSH2 0xFFFF PUSH1 0xD0 SHL NOT SWAP1 SWAP2 AND OR PUSH1 0x1 PUSH1 0xD0 SHL OR SWAP1 SSTORE PUSH1 0x7 DUP3 ADD DUP2 SWAP1 SSTORE PUSH1 0x6 DUP3 ADD SLOAD PUSH2 0x15B4 SWAP1 DUP3 SWAP1 PUSH2 0x1FDA JUMP JUMPDEST PUSH1 0x8 DUP4 ADD DUP2 SWAP1 SSTORE PUSH1 0x40 DUP1 MLOAD DUP4 DUP2 MSTORE PUSH1 0x20 DUP2 ADD SWAP3 SWAP1 SWAP3 MSTORE PUSH1 0xFF DUP6 AND SWAP2 DUP7 SWAP2 PUSH32 0x503D167E0856E2F40AAAC2DAC6550F9543EFB837691CC189CDE53B0172E4F32B SWAP2 ADD PUSH2 0xAFA JUMP JUMPDEST PUSH2 0x1601 PUSH2 0x19AD JUMP JUMPDEST PUSH1 0x1 PUSH1 0x1 PUSH1 0xA0 SHL SUB DUP2 AND PUSH2 0x1628 JUMPI PUSH1 0x40 MLOAD PUSH4 0x4E469669 PUSH1 0xE1 SHL DUP2 MSTORE PUSH1 0x4 ADD PUSH1 0x40 MLOAD DUP1 SWAP2 SUB SWAP1 REVERT JUMPDEST PUSH1 0x1 SLOAD PUSH1 0x40 MLOAD PUSH1 0x1 PUSH1 0x1 PUSH1 0xA0 SHL SUB DUP1 DUP5 AND SWAP3 AND SWAP1 PUSH32 0xD3890FC76AFCFC31CBA1DCF2C27B50E2541E4D75039C981855B5B5E03682AEA0 SWAP1 PUSH0 SWAP1 LOG3 PUSH1 0x1 DUP1 SLOAD PUSH1 0x1 PUSH1 0x1 PUSH1 0xA0 SHL SUB NOT AND PUSH1 0x1 PUSH1 0x1 PUSH1 0xA0 SHL SUB SWAP3 SWAP1 SWAP3 AND SWAP2 SWAP1 SWAP2 OR SWAP1 SSTORE JUMP JUMPDEST PUSH2 0x168B PUSH2 0x19AD JUMP JUMPDEST PUSH1 0x1 PUSH1 0x1 PUSH1 0xA0 SHL SUB DUP2 AND PUSH2 0x16B9 JUMPI PUSH1 0x40 MLOAD PUSH4 0x1E4FBDF7 PUSH1 0xE0 SHL DUP2 MSTORE PUSH0 PUSH1 0x4 DUP3 ADD MSTORE PUSH1 0x24 ADD JUMPDEST PUSH1 0x40 MLOAD DUP1 SWAP2 SUB SWAP1 REVERT JUMPDEST PUSH2 0x16C2 DUP2 PUSH2 0x19D9 JUMP JUMPDEST POP JUMP JUMPDEST PUSH0 PUSH1 0x2 DUP3 ADD SLOAD PUSH1 0x1 PUSH1 0xD0 SHL SWAP1 DIV PUSH1 0xFF AND PUSH1 0x1 DUP2 GT ISZERO PUSH2 0x16E6 JUMPI PUSH2 0x16E6 PUSH2 0x1E7A JUMP JUMPDEST EQ PUSH2 0x1704 JUMPI PUSH1 0x40 MLOAD PUSH4 0x3A67D481 PUSH1 0xE0 SHL DUP2 MSTORE PUSH1 0x4 ADD PUSH1 0x40 MLOAD DUP1 SWAP2 SUB SWAP1 REVERT JUMPDEST PUSH1 0x2 DUP2 ADD SLOAD PUSH1 0x1 PUSH1 0xA0 SHL SWAP1 DIV PUSH5 0xFFFFFFFFFF AND TIMESTAMP LT PUSH2 0x16C2 JUMPI PUSH1 0x40 MLOAD PUSH3 0xB5F6BF PUSH1 0xE4 SHL DUP2 MSTORE PUSH1 0x4 ADD PUSH1 0x40 MLOAD DUP1 SWAP2 SUB SWAP1 REVERT JUMPDEST PUSH2 0x1743 DUP5 DUP5 DUP5 DUP5 PUSH1 0x1 PUSH2 0x1C4A JUMP JUMPDEST PUSH2 0x176B JUMPI PUSH1 0x40 MLOAD PUSH4 0x5274AFE7 PUSH1 0xE0 SHL DUP2 MSTORE PUSH1 0x1 PUSH1 0x1 PUSH1 0xA0 SHL SUB DUP6 AND PUSH1 0x4 DUP3 ADD MSTORE PUSH1 0x24 ADD PUSH2 0x16B0 JUMP JUMPDEST POP POP POP POP JUMP JUMPDEST PUSH2 0x177E DUP4 DUP4 DUP4 PUSH1 0x1 PUSH2 0x1CB7 JUMP JUMPDEST PUSH2 0x17A6 JUMPI PUSH1 0x40 MLOAD PUSH4 0x5274AFE7 PUSH1 0xE0 SHL DUP2 MSTORE PUSH1 0x1 PUSH1 0x1 PUSH1 0xA0 SHL SUB DUP5 AND PUSH1 0x4 DUP3 ADD MSTORE PUSH1 0x24 ADD PUSH2 0x16B0 JUMP JUMPDEST POP POP POP JUMP JUMPDEST DUP1 PUSH0 SUB PUSH2 0x17B6 JUMPI POP POP JUMP JUMPDEST PUSH0 DUP3 DUP2 MSTORE PUSH1 0x3 PUSH1 0x20 MSTORE PUSH1 0x40 DUP2 KECCAK256 PUSH1 0x5 DUP2 ADD DUP1 SLOAD SWAP2 SWAP3 DUP5 SWAP3 PUSH2 0x17D8 SWAP1 DUP5 SWAP1 PUSH2 0x1FED JUMP JUMPDEST SWAP1 SWAP2 SSTORE POP POP PUSH1 0x3 DUP2 ADD SLOAD ISZERO PUSH2 0x17A6 JUMPI PUSH1 0x3 DUP2 ADD SLOAD PUSH2 0x17FE PUSH8 0xDE0B6B3A7640000 DUP5 PUSH2 0x1FA4 JUMP JUMPDEST PUSH2 0x1808 SWAP2 SWAP1 PUSH2 0x1FBB JUMP JUMPDEST DUP2 PUSH1 0x4 ADD PUSH0 DUP3 DUP3 SLOAD PUSH2 0x181A SWAP2 SWAP1 PUSH2 0x1FED JUMP JUMPDEST SWAP1 SWAP2 SSTORE POP POP POP POP POP JUMP JUMPDEST PUSH0 DUP1 DUP5 PUSH1 0x9 ADD DUP5 PUSH1 0xFF AND PUSH1 0x8 DUP2 LT PUSH2 0x183E JUMPI PUSH2 0x183E PUSH2 0x2000 JUMP JUMPDEST ADD SLOAD SWAP1 POP PUSH0 JUMPDEST PUSH1 0x2 DUP7 ADD SLOAD PUSH1 0xFF PUSH1 0x1 PUSH1 0xC8 SHL SWAP1 SWAP2 DIV DUP2 AND SWAP1 DUP3 AND LT ISZERO PUSH2 0x18CA JUMPI DUP5 PUSH1 0xFF AND DUP2 PUSH1 0xFF AND SUB ISZERO PUSH2 0x18C2 JUMPI DUP4 DUP7 PUSH1 0x9 ADD DUP3 PUSH1 0xFF AND PUSH1 0x8 DUP2 LT PUSH2 0x1885 JUMPI PUSH2 0x1885 PUSH2 0x2000 JUMP JUMPDEST ADD SLOAD PUSH2 0x1891 SWAP2 SWAP1 PUSH2 0x1FED JUMP JUMPDEST DUP7 PUSH1 0x9 ADD DUP3 PUSH1 0xFF AND PUSH1 0x8 DUP2 LT PUSH2 0x18A9 JUMPI PUSH2 0x18A9 PUSH2 0x2000 JUMP JUMPDEST ADD SLOAD PUSH2 0x18B5 SWAP1 DUP5 PUSH2 0x1FA4 JUMP JUMPDEST PUSH2 0x18BF SWAP2 SWAP1 PUSH2 0x1FBB JUMP JUMPDEST SWAP2 POP JUMPDEST PUSH1 0x1 ADD PUSH2 0x1844 JUMP JUMPDEST POP DUP1 DUP4 DUP7 PUSH1 0x9 ADD DUP7 PUSH1 0xFF AND PUSH1 0x8 DUP2 LT PUSH2 0x18E5 JUMPI PUSH2 0x18E5 PUSH2 0x2000 JUMP JUMPDEST ADD SLOAD PUSH2 0x18F1 SWAP2 SWAP1 PUSH2 0x1FED JUMP JUMPDEST PUSH2 0x18FB SWAP2 SWAP1 PUSH2 0x1FDA JUMP JUMPDEST SWAP2 POP POP JUMPDEST SWAP4 SWAP3 POP POP POP JUMP JUMPDEST PUSH0 DUP3 DUP2 MSTORE PUSH1 0x3 PUSH1 0x20 SWAP1 DUP2 MSTORE PUSH1 0x40 DUP1 DUP4 KECCAK256 PUSH1 0x5 DUP4 MSTORE DUP2 DUP5 KECCAK256 PUSH1 0x1 PUSH1 0x1 PUSH1 0xA0 SHL SUB DUP7 AND DUP6 MSTORE SWAP1 SWAP3 MSTORE DUP3 KECCAK256 DUP1 SLOAD SWAP2 SWAP3 SWAP1 SWAP2 SWAP1 SUB PUSH2 0x1946 JUMPI PUSH0 PUSH1 0x1 SWAP1 SWAP2 ADD SSTORE POP POP POP JUMP JUMPDEST PUSH0 PUSH8 0xDE0B6B3A7640000 DUP4 PUSH1 0x4 ADD SLOAD DUP4 PUSH0 ADD SLOAD PUSH2 0x1963 SWAP2 SWAP1 PUSH2 0x1FA4 JUMP JUMPDEST PUSH2 0x196D SWAP2 SWAP1 PUSH2 0x1FBB JUMP JUMPDEST SWAP1 POP DUP2 PUSH1 0x1 ADD SLOAD DUP2 GT ISZERO PUSH2 0x19A2 JUMPI PUSH1 0x1 DUP3 ADD SLOAD PUSH2 0x198A SWAP1 DUP3 PUSH2 0x1FDA JUMP JUMPDEST DUP3 PUSH1 0x2 ADD PUSH0 DUP3 DUP3 SLOAD PUSH2 0x199C SWAP2 SWAP1 PUSH2 0x1FED JUMP JUMPDEST SWAP1 SWAP2 SSTORE POP POP JUMPDEST PUSH1 0x1 SWAP1 SWAP2 ADD SSTORE POP POP POP JUMP JUMPDEST PUSH0 SLOAD PUSH1 0x1 PUSH1 0x1 PUSH1 0xA0 SHL SUB AND CALLER EQ PUSH2 0xB19 JUMPI PUSH1 0x40 MLOAD PUSH4 0x118CDAA7 PUSH1 0xE0 SHL DUP2 MSTORE CALLER PUSH1 0x4 DUP3 ADD MSTORE PUSH1 0x24 ADD PUSH2 0x16B0 JUMP JUMPDEST PUSH0 DUP1 SLOAD PUSH1 0x1 PUSH1 0x1 PUSH1 0xA0 SHL SUB DUP4 DUP2 AND PUSH1 0x1 PUSH1 0x1 PUSH1 0xA0 SHL SUB NOT DUP4 AND DUP2 OR DUP5 SSTORE PUSH1 0x40 MLOAD SWAP2 SWAP1 SWAP3 AND SWAP3 DUP4 SWAP2 PUSH32 0x8BE0079C531659141344CD1FD0A4F28419497F9722A3DAAFE3B4186F6B6457E0 SWAP2 SWAP1 LOG3 POP POP JUMP JUMPDEST PUSH1 0x2 DUP3 ADD SLOAD PUSH0 SWAP1 PUSH2 0x1A43 SWAP1 PUSH1 0x1 PUSH1 0xC8 SHL SWAP1 DIV PUSH1 0xFF AND DUP4 PUSH2 0x1FBB JUMP JUMPDEST PUSH1 0x2 DUP5 ADD SLOAD SWAP1 SWAP2 POP PUSH0 SWAP1 PUSH2 0x1A61 SWAP1 PUSH1 0x1 PUSH1 0xC8 SHL SWAP1 DIV PUSH1 0xFF AND DUP4 PUSH2 0x1FA4 JUMP JUMPDEST PUSH2 0x1A6B SWAP1 DUP5 PUSH2 0x1FDA JUMP JUMPDEST SWAP1 POP PUSH0 JUMPDEST PUSH1 0x2 DUP6 ADD SLOAD PUSH1 0xFF PUSH1 0x1 PUSH1 0xC8 SHL SWAP1 SWAP2 DIV DUP2 AND SWAP1 DUP3 AND LT ISZERO PUSH2 0x1ABE JUMPI DUP3 DUP6 PUSH1 0x9 ADD DUP3 PUSH1 0xFF AND PUSH1 0x8 DUP2 LT PUSH2 0x1AA2 JUMPI PUSH2 0x1AA2 PUSH2 0x2000 JUMP JUMPDEST ADD PUSH0 DUP3 DUP3 SLOAD PUSH2 0x1AB1 SWAP2 SWAP1 PUSH2 0x1FED JUMP JUMPDEST SWAP1 SWAP2 SSTORE POP POP PUSH1 0x1 ADD PUSH2 0x1A6F JUMP JUMPDEST POP DUP1 ISZERO PUSH2 0x176B JUMPI DUP1 PUSH1 0x9 DUP6 ADD PUSH0 ADD PUSH0 DUP3 DUP3 SLOAD PUSH2 0x1ADA SWAP2 SWAP1 PUSH2 0x1FED JUMP JUMPDEST SWAP1 SWAP2 SSTORE POP POP POP POP POP POP JUMP JUMPDEST PUSH0 DUP4 DUP2 MSTORE PUSH1 0x5 PUSH1 0x20 SWAP1 DUP2 MSTORE PUSH1 0x40 DUP1 DUP4 KECCAK256 PUSH1 0x1 PUSH1 0x1 PUSH1 0xA0 SHL SUB DUP7 AND DUP5 MSTORE SWAP1 SWAP2 MSTORE DUP2 KECCAK256 DUP1 SLOAD SWAP1 SWAP2 DUP4 SWAP2 DUP4 SWAP2 SWAP1 PUSH2 0x1B1A SWAP1 DUP5 SWAP1 PUSH2 0x1FED JUMP JUMPDEST SWAP1 SWAP2 SSTORE POP POP PUSH0 DUP5 DUP2 MSTORE PUSH1 0x3 PUSH1 0x20 MSTORE PUSH1 0x40 SWAP1 KECCAK256 PUSH1 0x4 ADD SLOAD DUP2 SLOAD PUSH8 0xDE0B6B3A7640000 SWAP2 PUSH2 0x1B45 SWAP2 PUSH2 0x1FA4 JUMP JUMPDEST PUSH2 0x19A2 SWAP2 SWAP1 PUSH2 0x1FBB JUMP JUMPDEST PUSH0 PUSH15 0xC097CE7BC90715B34B9F1000000000 DUP2 DUP1 JUMPDEST PUSH1 0x2 DUP8 ADD SLOAD PUSH1 0xFF PUSH1 0x1 PUSH1 0xC8 SHL SWAP1 SWAP2 DIV DUP2 AND SWAP1 DUP3 AND LT ISZERO PUSH2 0x1BCC JUMPI PUSH0 DUP8 PUSH1 0x9 ADD DUP3 PUSH1 0xFF AND PUSH1 0x8 DUP2 LT PUSH2 0x1B96 JUMPI PUSH2 0x1B96 PUSH2 0x2000 JUMP JUMPDEST ADD SLOAD SWAP1 POP DUP1 PUSH0 SUB PUSH2 0x1BAD JUMPI PUSH0 SWAP5 POP POP POP POP POP PUSH2 0x18FF JUMP JUMPDEST PUSH2 0x1BB7 DUP2 DUP6 PUSH2 0x1FBB JUMP JUMPDEST PUSH2 0x1BC1 SWAP1 DUP5 PUSH2 0x1FED JUMP JUMPDEST SWAP3 POP POP PUSH1 0x1 ADD PUSH2 0x1B63 JUMP JUMPDEST POP DUP1 PUSH0 SUB PUSH2 0x1BDE JUMPI PUSH0 SWAP3 POP POP POP PUSH2 0x18FF JUMP JUMPDEST PUSH0 DUP2 DUP8 PUSH1 0x9 ADD DUP8 PUSH1 0xFF AND PUSH1 0x8 DUP2 LT PUSH2 0x1BF8 JUMPI PUSH2 0x1BF8 PUSH2 0x2000 JUMP JUMPDEST ADD SLOAD PUSH2 0x1C04 SWAP1 DUP6 PUSH2 0x1FBB JUMP JUMPDEST PUSH2 0x1C16 SWAP1 PUSH8 0xDE0B6B3A7640000 PUSH2 0x1FA4 JUMP JUMPDEST PUSH2 0x1C20 SWAP2 SWAP1 PUSH2 0x1FBB JUMP JUMPDEST SWAP1 POP PUSH8 0xDE0B6B3A7640000 PUSH2 0x1C35 DUP3 DUP8 PUSH2 0x1FA4 JUMP JUMPDEST PUSH2 0x1C3F SWAP2 SWAP1 PUSH2 0x1FBB JUMP JUMPDEST SWAP8 SWAP7 POP POP POP POP POP POP POP JUMP JUMPDEST PUSH1 0x40 MLOAD PUSH4 0x23B872DD PUSH1 0xE0 SHL PUSH0 DUP2 DUP2 MSTORE PUSH1 0x1 PUSH1 0x1 PUSH1 0xA0 SHL SUB DUP8 DUP2 AND PUSH1 0x4 MSTORE DUP7 AND PUSH1 0x24 MSTORE PUSH1 0x44 DUP6 SWAP1 MSTORE SWAP2 PUSH1 0x20 DUP4 PUSH1 0x64 DUP2 DUP1 DUP13 GAS CALL SWAP3 POP PUSH1 0x1 PUSH0 MLOAD EQ DUP4 AND PUSH2 0x1CA6 JUMPI DUP4 DUP4 ISZERO AND ISZERO PUSH2 0x1C9A JUMPI RETURNDATASIZE PUSH0 DUP3 RETURNDATACOPY RETURNDATASIZE DUP2 REVERT JUMPDEST PUSH0 DUP9 EXTCODESIZE GT RETURNDATASIZE ISZERO AND DUP4 AND SWAP3 POP JUMPDEST PUSH1 0x40 MSTORE POP PUSH0 PUSH1 0x60 MSTORE SWAP6 SWAP5 POP POP POP POP POP JUMP JUMPDEST PUSH1 0x40 MLOAD PUSH4 0xA9059CBB PUSH1 0xE0 SHL PUSH0 DUP2 DUP2 MSTORE PUSH1 0x1 PUSH1 0x1 PUSH1 0xA0 SHL SUB DUP7 AND PUSH1 0x4 MSTORE PUSH1 0x24 DUP6 SWAP1 MSTORE SWAP2 PUSH1 0x20 DUP4 PUSH1 0x44 DUP2 DUP1 DUP12 GAS CALL SWAP3 POP PUSH1 0x1 PUSH0 MLOAD EQ DUP4 AND PUSH2 0x1D0D JUMPI DUP4 DUP4 ISZERO AND ISZERO PUSH2 0x1D01 JUMPI RETURNDATASIZE PUSH0 DUP3 RETURNDATACOPY RETURNDATASIZE DUP2 REVERT JUMPDEST PUSH0 DUP8 EXTCODESIZE GT RETURNDATASIZE ISZERO AND DUP4 AND SWAP3 POP JUMPDEST PUSH1 0x40 MSTORE POP SWAP5 SWAP4 POP POP POP POP JUMP JUMPDEST PUSH1 0x40 MLOAD DUP1 PUSH2 0x100 ADD PUSH1 0x40 MSTORE DUP1 PUSH1 0x8 SWAP1 PUSH1 0x20 DUP3 MUL DUP1 CALLDATASIZE DUP4 CALLDATACOPY POP SWAP2 SWAP3 SWAP2 POP POP JUMP JUMPDEST DUP1 CALLDATALOAD PUSH1 0x1 PUSH1 0x1 PUSH1 0xA0 SHL SUB DUP2 AND DUP2 EQ PUSH2 0x1D4E JUMPI PUSH0 DUP1 REVERT JUMPDEST SWAP2 SWAP1 POP JUMP JUMPDEST PUSH0 DUP1 PUSH1 0x40 DUP4 DUP6 SUB SLT ISZERO PUSH2 0x1D64 JUMPI PUSH0 DUP1 REVERT JUMPDEST DUP3 CALLDATALOAD SWAP2 POP PUSH2 0x1D74 PUSH1 0x20 DUP5 ADD PUSH2 0x1D38 JUMP JUMPDEST SWAP1 POP SWAP3 POP SWAP3 SWAP1 POP JUMP JUMPDEST DUP1 CALLDATALOAD PUSH1 0xFF DUP2 AND DUP2 EQ PUSH2 0x1D4E JUMPI PUSH0 DUP1 REVERT JUMPDEST PUSH0 DUP1 PUSH0 PUSH1 0x60 DUP5 DUP7 SUB SLT ISZERO PUSH2 0x1D9F JUMPI PUSH0 DUP1 REVERT JUMPDEST DUP4 CALLDATALOAD SWAP3 POP PUSH2 0x1DAF PUSH1 0x20 DUP6 ADD PUSH2 0x1D7D JUMP JUMPDEST SWAP2 POP PUSH1 0x40 DUP5 ADD CALLDATALOAD SWAP1 POP SWAP3 POP SWAP3 POP SWAP3 JUMP JUMPDEST PUSH0 DUP1 PUSH1 0x40 DUP4 DUP6 SUB SLT ISZERO PUSH2 0x1DD0 JUMPI PUSH0 DUP1 REVERT JUMPDEST POP POP DUP1 CALLDATALOAD SWAP3 PUSH1 0x20 SWAP1 SWAP2 ADD CALLDATALOAD SWAP2 POP JUMP JUMPDEST PUSH0 PUSH1 0x20 DUP3 DUP5 SUB SLT ISZERO PUSH2 0x1DEF JUMPI PUSH0 DUP1 REVERT JUMPDEST POP CALLDATALOAD SWAP2 SWAP1 POP JUMP JUMPDEST PUSH2 0x100 DUP2 ADD DUP2 DUP4 PUSH0 JUMPDEST PUSH1 0x8 DUP2 LT ISZERO PUSH2 0x1E1E JUMPI DUP2 MLOAD DUP4 MSTORE PUSH1 0x20 SWAP3 DUP4 ADD SWAP3 SWAP1 SWAP2 ADD SWAP1 PUSH1 0x1 ADD PUSH2 0x1DFF JUMP JUMPDEST POP POP POP SWAP3 SWAP2 POP POP JUMP JUMPDEST PUSH0 DUP1 PUSH0 DUP1 PUSH0 PUSH1 0xA0 DUP7 DUP9 SUB SLT ISZERO PUSH2 0x1E3B JUMPI PUSH0 DUP1 REVERT JUMPDEST PUSH2 0x1E44 DUP7 PUSH2 0x1D38 JUMP JUMPDEST SWAP5 POP PUSH2 0x1E52 PUSH1 0x20 DUP8 ADD PUSH2 0x1D7D JUMP JUMPDEST SWAP4 POP PUSH1 0x40 DUP7 ADD CALLDATALOAD SWAP3 POP PUSH1 0x60 DUP7 ADD CALLDATALOAD SWAP2 POP PUSH2 0x1E6E PUSH1 0x80 DUP8 ADD PUSH2 0x1D38 JUMP JUMPDEST SWAP1 POP SWAP3 SWAP6 POP SWAP3 SWAP6 SWAP1 SWAP4 POP JUMP JUMPDEST PUSH4 0x4E487B71 PUSH1 0xE0 SHL PUSH0 MSTORE PUSH1 0x21 PUSH1 0x4 MSTORE PUSH1 0x24 PUSH0 REVERT JUMPDEST PUSH1 0x2 DUP2 LT PUSH2 0x1EAA JUMPI PUSH4 0x4E487B71 PUSH1 0xE0 SHL PUSH0 MSTORE PUSH1 0x21 PUSH1 0x4 MSTORE PUSH1 0x24 PUSH0 REVERT JUMPDEST SWAP1 MSTORE JUMP JUMPDEST PUSH1 0x1 PUSH1 0x1 PUSH1 0xA0 SHL SUB DUP15 DUP2 AND DUP3 MSTORE DUP14 DUP2 AND PUSH1 0x20 DUP4 ADD MSTORE DUP13 AND PUSH1 0x40 DUP3 ADD MSTORE PUSH5 0xFFFFFFFFFF DUP12 AND PUSH1 0x60 DUP3 ADD MSTORE PUSH1 0xFF DUP11 AND PUSH1 0x80 DUP3 ADD MSTORE PUSH2 0x1A0 DUP2 ADD PUSH2 0x1EF2 PUSH1 0xA0 DUP4 ADD DUP12 PUSH2 0x1E8E JUMP JUMPDEST PUSH1 0xFF SWAP9 SWAP1 SWAP9 AND PUSH1 0xC0 DUP3 ADD MSTORE PUSH1 0xE0 DUP2 ADD SWAP7 SWAP1 SWAP7 MSTORE PUSH2 0x100 DUP7 ADD SWAP5 SWAP1 SWAP5 MSTORE PUSH2 0x120 DUP6 ADD SWAP3 SWAP1 SWAP3 MSTORE PUSH2 0x140 DUP5 ADD MSTORE PUSH2 0x160 DUP4 ADD MSTORE PUSH2 0x180 SWAP1 SWAP2 ADD MSTORE SWAP7 SWAP6 POP POP POP POP POP POP JUMP JUMPDEST PUSH0 DUP1 PUSH1 0x40 DUP4 DUP6 SUB SLT ISZERO PUSH2 0x1F45 JUMPI PUSH0 DUP1 REVERT JUMPDEST DUP3 CALLDATALOAD SWAP2 POP PUSH2 0x1D74 PUSH1 0x20 DUP5 ADD PUSH2 0x1D7D JUMP JUMPDEST PUSH0 DUP1 PUSH0 PUSH1 0x60 DUP5 DUP7 SUB SLT ISZERO PUSH2 0x1F67 JUMPI PUSH0 DUP1 REVERT JUMPDEST DUP4 CALLDATALOAD SWAP3 POP PUSH2 0x1DAF PUSH1 0x20 DUP6 ADD PUSH2 0x1D38 JUMP JUMPDEST PUSH0 PUSH1 0x20 DUP3 DUP5 SUB SLT ISZERO PUSH2 0x1F87 JUMPI PUSH0 DUP1 REVERT JUMPDEST PUSH2 0x18FF DUP3 PUSH2 0x1D38 JUMP JUMPDEST PUSH4 0x4E487B71 PUSH1 0xE0 SHL PUSH0 MSTORE PUSH1 0x11 PUSH1 0x4 MSTORE PUSH1 0x24 PUSH0 REVERT JUMPDEST DUP1 DUP3 MUL DUP2 ISZERO DUP3 DUP3 DIV DUP5 EQ OR PUSH2 0xB73 JUMPI PUSH2 0xB73 PUSH2 0x1F90 JUMP JUMPDEST PUSH0 DUP3 PUSH2 0x1FD5 JUMPI PUSH4 0x4E487B71 PUSH1 0xE0 SHL PUSH0 MSTORE PUSH1 0x12 PUSH1 0x4 MSTORE PUSH1 0x24 PUSH0 REVERT JUMPDEST POP DIV SWAP1 JUMP JUMPDEST DUP2 DUP2 SUB DUP2 DUP2 GT ISZERO PUSH2 0xB73 JUMPI PUSH2 0xB73 PUSH2 0x1F90 JUMP JUMPDEST DUP1 DUP3 ADD DUP1 DUP3 GT ISZERO PUSH2 0xB73 JUMPI PUSH2 0xB73 PUSH2 0x1F90 JUMP JUMPDEST PUSH4 0x4E487B71 PUSH1 0xE0 SHL PUSH0 MSTORE PUSH1 0x32 PUSH1 0x4 MSTORE PUSH1 0x24 PUSH0 REVERT JUMPDEST PUSH0 PUSH1 0x1 DUP3 ADD PUSH2 0x2025 JUMPI PUSH2 0x2025 PUSH2 0x1F90 JUMP JUMPDEST POP PUSH1 0x1 ADD SWAP1 JUMP INVALID LOG2 PUSH5 0x6970667358 0x22 SLT KECCAK256 SWAP1 CALLDATALOAD 0xBD 0x28 0xC1 SLT GAS RETURNDATACOPY 0x21 0xD0 0xFC 0x1E DUP7 SWAP13 BALANCE CHAINID LOG3 DUP14 DUP11 SUB REVERT SWAP3 0x1F SWAP12 CALLER 0x24 0xC 0x4F 0xD9 0xF9 STOP DUP5 PUSH5 0x736F6C6343 STOP ADDMOD XOR STOP CALLER "},"methodIdentifiers":{"BPS()":"249d39e9","LP_FEE_BPS()":"a5258210","MAX_OUTCOMES()":"dc73d164","PROTOCOL_FEE_BPS()":"be378228","TOTAL_FEE_BPS()":"6f28507c","addLiquidity(uint256,uint256)":"9cd441da","buyShares(uint256,uint8,uint256)":"1af63283","claimLpFees(uint256)":"99406c9b","claimWinnings(uint256)":"677bd9ff","createMarket(address,uint8,uint256,uint256,address)":"9f1e3bf0","getLpPosition(uint256,address)":"1fdbc3c8","getOutcomePrice(uint256,uint8)":"b1b40973","getPools(uint256)":"62d26ed7","getUserShares(uint256,address)":"835dc40b","lpPositions(uint256,address)":"11123942","markets(uint256)":"b1283e77","nextMarketId()":"406ef2ef","owner()":"8da5cb5b","protocolFeeRecipient()":"64df049e","redeemLiquidity(uint256,uint256)":"49364d23","renounceOwnership()":"715018a6","resolveMarket(uint256,uint8)":"df55406e","sellShares(uint256,uint8,uint256)":"c22acd36","setProtocolFeeRecipient(address)":"e521cb92","transferOwnership(address)":"f2fde38b","userShares(uint256,address,uint256)":"d27ff2fc"}}}}}