{
  "_format": "hh-sol-artifact-1",
  "contractName": "MultichainNFT",
  "sourceName": "MultichainNFT.sol",
  "abi": [
    {
      "inputs": [
        {
          "internalType": "string",
          "name": "name",
          "type": "string"
        },
        {
          "internalType": "string",
          "name": "symbol",
          "type": "string"
        },
        {
          "internalType": "string",
          "name": "_baseTokenURI",
          "type": "string"
        },
        {
          "internalType": "uint256",
          "name": "_maxSupply",
          "type": "uint256"
        },
        {
          "internalType": "uint256",
          "name": "_mintPrice",
          "type": "uint256"
        },
        {
          "internalType": "address",
          "name": "_payoutRecipient",
          "type": "address"
        },
        {
          "internalType": "address",
          "name": "royaltyReceiver",
          "type": "address"
        },
        {
          "internalType": "uint96",
          "name": "royaltyFeeNumerator",
          "type": "uint96"
        }
      ],
      "stateMutability": "nonpayable",
      "type": "constructor"
    },
    {
      "inputs": [
        {
          "internalType": "uint256",
          "name": "numerator",
          "type": "uint256"
        },
        {
          "internalType": "uint256",
          "name": "denominator",
          "type": "uint256"
        }
      ],
      "name": "ERC2981InvalidDefaultRoyalty",
      "type": "error"
    },
    {
      "inputs": [
        {
          "internalType": "address",
          "name": "receiver",
          "type": "address"
        }
      ],
      "name": "ERC2981InvalidDefaultRoyaltyReceiver",
      "type": "error"
    },
    {
      "inputs": [
        {
          "internalType": "uint256",
          "name": "tokenId",
          "type": "uint256"
        },
        {
          "internalType": "uint256",
          "name": "numerator",
          "type": "uint256"
        },
        {
          "internalType": "uint256",
          "name": "denominator",
          "type": "uint256"
        }
      ],
      "name": "ERC2981InvalidTokenRoyalty",
      "type": "error"
    },
    {
      "inputs": [
        {
          "internalType": "uint256",
          "name": "tokenId",
          "type": "uint256"
        },
        {
          "internalType": "address",
          "name": "receiver",
          "type": "address"
        }
      ],
      "name": "ERC2981InvalidTokenRoyaltyReceiver",
      "type": "error"
    },
    {
      "inputs": [
        {
          "internalType": "address",
          "name": "sender",
          "type": "address"
        },
        {
          "internalType": "uint256",
          "name": "tokenId",
          "type": "uint256"
        },
        {
          "internalType": "address",
          "name": "owner",
          "type": "address"
        }
      ],
      "name": "ERC721IncorrectOwner",
      "type": "error"
    },
    {
      "inputs": [
        {
          "internalType": "address",
          "name": "operator",
          "type": "address"
        },
        {
          "internalType": "uint256",
          "name": "tokenId",
          "type": "uint256"
        }
      ],
      "name": "ERC721InsufficientApproval",
      "type": "error"
    },
    {
      "inputs": [
        {
          "internalType": "address",
          "name": "approver",
          "type": "address"
        }
      ],
      "name": "ERC721InvalidApprover",
      "type": "error"
    },
    {
      "inputs": [
        {
          "internalType": "address",
          "name": "operator",
          "type": "address"
        }
      ],
      "name": "ERC721InvalidOperator",
      "type": "error"
    },
    {
      "inputs": [
        {
          "internalType": "address",
          "name": "owner",
          "type": "address"
        }
      ],
      "name": "ERC721InvalidOwner",
      "type": "error"
    },
    {
      "inputs": [
        {
          "internalType": "address",
          "name": "receiver",
          "type": "address"
        }
      ],
      "name": "ERC721InvalidReceiver",
      "type": "error"
    },
    {
      "inputs": [
        {
          "internalType": "address",
          "name": "sender",
          "type": "address"
        }
      ],
      "name": "ERC721InvalidSender",
      "type": "error"
    },
    {
      "inputs": [
        {
          "internalType": "uint256",
          "name": "tokenId",
          "type": "uint256"
        }
      ],
      "name": "ERC721NonexistentToken",
      "type": "error"
    },
    {
      "inputs": [
        {
          "internalType": "address",
          "name": "owner",
          "type": "address"
        }
      ],
      "name": "OwnableInvalidOwner",
      "type": "error"
    },
    {
      "inputs": [
        {
          "internalType": "address",
          "name": "account",
          "type": "address"
        }
      ],
      "name": "OwnableUnauthorizedAccount",
      "type": "error"
    },
    {
      "anonymous": false,
      "inputs": [
        {
          "indexed": true,
          "internalType": "address",
          "name": "owner",
          "type": "address"
        },
        {
          "indexed": true,
          "internalType": "address",
          "name": "approved",
          "type": "address"
        },
        {
          "indexed": true,
          "internalType": "uint256",
          "name": "tokenId",
          "type": "uint256"
        }
      ],
      "name": "Approval",
      "type": "event"
    },
    {
      "anonymous": false,
      "inputs": [
        {
          "indexed": true,
          "internalType": "address",
          "name": "owner",
          "type": "address"
        },
        {
          "indexed": true,
          "internalType": "address",
          "name": "operator",
          "type": "address"
        },
        {
          "indexed": false,
          "internalType": "bool",
          "name": "approved",
          "type": "bool"
        }
      ],
      "name": "ApprovalForAll",
      "type": "event"
    },
    {
      "anonymous": false,
      "inputs": [
        {
          "indexed": false,
          "internalType": "string",
          "name": "newBaseURI",
          "type": "string"
        }
      ],
      "name": "BaseURIUpdated",
      "type": "event"
    },
    {
      "anonymous": false,
      "inputs": [
        {
          "indexed": false,
          "internalType": "uint256",
          "name": "_fromTokenId",
          "type": "uint256"
        },
        {
          "indexed": false,
          "internalType": "uint256",
          "name": "_toTokenId",
          "type": "uint256"
        }
      ],
      "name": "BatchMetadataUpdate",
      "type": "event"
    },
    {
      "anonymous": false,
      "inputs": [
        {
          "indexed": false,
          "internalType": "uint256",
          "name": "_tokenId",
          "type": "uint256"
        }
      ],
      "name": "MetadataUpdate",
      "type": "event"
    },
    {
      "anonymous": false,
      "inputs": [
        {
          "indexed": false,
          "internalType": "uint256",
          "name": "newPrice",
          "type": "uint256"
        }
      ],
      "name": "MintPriceUpdated",
      "type": "event"
    },
    {
      "anonymous": false,
      "inputs": [
        {
          "indexed": true,
          "internalType": "address",
          "name": "minter",
          "type": "address"
        }
      ],
      "name": "MinterAdded",
      "type": "event"
    },
    {
      "anonymous": false,
      "inputs": [
        {
          "indexed": true,
          "internalType": "address",
          "name": "minter",
          "type": "address"
        }
      ],
      "name": "MinterRemoved",
      "type": "event"
    },
    {
      "anonymous": false,
      "inputs": [
        {
          "indexed": true,
          "internalType": "address",
          "name": "to",
          "type": "address"
        },
        {
          "indexed": true,
          "internalType": "uint256",
          "name": "tokenId",
          "type": "uint256"
        },
        {
          "indexed": false,
          "internalType": "string",
          "name": "tokenURI",
          "type": "string"
        }
      ],
      "name": "NFTMinted",
      "type": "event"
    },
    {
      "anonymous": false,
      "inputs": [
        {
          "indexed": true,
          "internalType": "address",
          "name": "previousOwner",
          "type": "address"
        },
        {
          "indexed": true,
          "internalType": "address",
          "name": "newOwner",
          "type": "address"
        }
      ],
      "name": "OwnershipTransferred",
      "type": "event"
    },
    {
      "anonymous": false,
      "inputs": [
        {
          "indexed": true,
          "internalType": "address",
          "name": "newRecipient",
          "type": "address"
        }
      ],
      "name": "PayoutRecipientUpdated",
      "type": "event"
    },
    {
      "anonymous": false,
      "inputs": [
        {
          "indexed": false,
          "internalType": "bool",
          "name": "enabled",
          "type": "bool"
        }
      ],
      "name": "PublicMintToggled",
      "type": "event"
    },
    {
      "anonymous": false,
      "inputs": [
        {
          "indexed": true,
          "internalType": "address",
          "name": "from",
          "type": "address"
        },
        {
          "indexed": true,
          "internalType": "address",
          "name": "to",
          "type": "address"
        },
        {
          "indexed": true,
          "internalType": "uint256",
          "name": "tokenId",
          "type": "uint256"
        }
      ],
      "name": "Transfer",
      "type": "event"
    },
    {
      "inputs": [
        {
          "internalType": "address",
          "name": "minter",
          "type": "address"
        }
      ],
      "name": "addMinter",
      "outputs": [],
      "stateMutability": "nonpayable",
      "type": "function"
    },
    {
      "inputs": [
        {
          "internalType": "address",
          "name": "to",
          "type": "address"
        },
        {
          "internalType": "uint256",
          "name": "tokenId",
          "type": "uint256"
        }
      ],
      "name": "approve",
      "outputs": [],
      "stateMutability": "nonpayable",
      "type": "function"
    },
    {
      "inputs": [
        {
          "internalType": "address",
          "name": "owner",
          "type": "address"
        }
      ],
      "name": "balanceOf",
      "outputs": [
        {
          "internalType": "uint256",
          "name": "",
          "type": "uint256"
        }
      ],
      "stateMutability": "view",
      "type": "function"
    },
    {
      "inputs": [],
      "name": "baseTokenURI",
      "outputs": [
        {
          "internalType": "string",
          "name": "",
          "type": "string"
        }
      ],
      "stateMutability": "view",
      "type": "function"
    },
    {
      "inputs": [
        {
          "internalType": "address",
          "name": "to",
          "type": "address"
        },
        {
          "internalType": "string[]",
          "name": "uris",
          "type": "string[]"
        }
      ],
      "name": "batchMint",
      "outputs": [
        {
          "internalType": "uint256[]",
          "name": "",
          "type": "uint256[]"
        }
      ],
      "stateMutability": "payable",
      "type": "function"
    },
    {
      "inputs": [],
      "name": "defaultRoyaltyFeeNumerator",
      "outputs": [
        {
          "internalType": "uint96",
          "name": "",
          "type": "uint96"
        }
      ],
      "stateMutability": "view",
      "type": "function"
    },
    {
      "inputs": [
        {
          "internalType": "uint256",
          "name": "tokenId",
          "type": "uint256"
        }
      ],
      "name": "getApproved",
      "outputs": [
        {
          "internalType": "address",
          "name": "",
          "type": "address"
        }
      ],
      "stateMutability": "view",
      "type": "function"
    },
    {
      "inputs": [
        {
          "internalType": "address",
          "name": "owner",
          "type": "address"
        },
        {
          "internalType": "address",
          "name": "operator",
          "type": "address"
        }
      ],
      "name": "isApprovedForAll",
      "outputs": [
        {
          "internalType": "bool",
          "name": "",
          "type": "bool"
        }
      ],
      "stateMutability": "view",
      "type": "function"
    },
    {
      "inputs": [],
      "name": "maxSupply",
      "outputs": [
        {
          "internalType": "uint256",
          "name": "",
          "type": "uint256"
        }
      ],
      "stateMutability": "view",
      "type": "function"
    },
    {
      "inputs": [
        {
          "internalType": "address",
          "name": "to",
          "type": "address"
        },
        {
          "internalType": "string",
          "name": "uri",
          "type": "string"
        }
      ],
      "name": "mint",
      "outputs": [
        {
          "internalType": "uint256",
          "name": "",
          "type": "uint256"
        }
      ],
      "stateMutability": "payable",
      "type": "function"
    },
    {
      "inputs": [],
      "name": "mintPrice",
      "outputs": [
        {
          "internalType": "uint256",
          "name": "",
          "type": "uint256"
        }
      ],
      "stateMutability": "view",
      "type": "function"
    },
    {
      "inputs": [
        {
          "internalType": "address",
          "name": "",
          "type": "address"
        }
      ],
      "name": "minters",
      "outputs": [
        {
          "internalType": "bool",
          "name": "",
          "type": "bool"
        }
      ],
      "stateMutability": "view",
      "type": "function"
    },
    {
      "inputs": [],
      "name": "name",
      "outputs": [
        {
          "internalType": "string",
          "name": "",
          "type": "string"
        }
      ],
      "stateMutability": "view",
      "type": "function"
    },
    {
      "inputs": [],
      "name": "owner",
      "outputs": [
        {
          "internalType": "address",
          "name": "",
          "type": "address"
        }
      ],
      "stateMutability": "view",
      "type": "function"
    },
    {
      "inputs": [
        {
          "internalType": "uint256",
          "name": "tokenId",
          "type": "uint256"
        }
      ],
      "name": "ownerOf",
      "outputs": [
        {
          "internalType": "address",
          "name": "",
          "type": "address"
        }
      ],
      "stateMutability": "view",
      "type": "function"
    },
    {
      "inputs": [],
      "name": "payoutRecipient",
      "outputs": [
        {
          "internalType": "address",
          "name": "",
          "type": "address"
        }
      ],
      "stateMutability": "view",
      "type": "function"
    },
    {
      "inputs": [],
      "name": "publicMintEnabled",
      "outputs": [
        {
          "internalType": "bool",
          "name": "",
          "type": "bool"
        }
      ],
      "stateMutability": "view",
      "type": "function"
    },
    {
      "inputs": [
        {
          "internalType": "address",
          "name": "minter",
          "type": "address"
        }
      ],
      "name": "removeMinter",
      "outputs": [],
      "stateMutability": "nonpayable",
      "type": "function"
    },
    {
      "inputs": [],
      "name": "renounceOwnership",
      "outputs": [],
      "stateMutability": "nonpayable",
      "type": "function"
    },
    {
      "inputs": [
        {
          "internalType": "uint256",
          "name": "tokenId",
          "type": "uint256"
        },
        {
          "internalType": "uint256",
          "name": "salePrice",
          "type": "uint256"
        }
      ],
      "name": "royaltyInfo",
      "outputs": [
        {
          "internalType": "address",
          "name": "receiver",
          "type": "address"
        },
        {
          "internalType": "uint256",
          "name": "amount",
          "type": "uint256"
        }
      ],
      "stateMutability": "view",
      "type": "function"
    },
    {
      "inputs": [
        {
          "internalType": "address",
          "name": "from",
          "type": "address"
        },
        {
          "internalType": "address",
          "name": "to",
          "type": "address"
        },
        {
          "internalType": "uint256",
          "name": "tokenId",
          "type": "uint256"
        }
      ],
      "name": "safeTransferFrom",
      "outputs": [],
      "stateMutability": "nonpayable",
      "type": "function"
    },
    {
      "inputs": [
        {
          "internalType": "address",
          "name": "from",
          "type": "address"
        },
        {
          "internalType": "address",
          "name": "to",
          "type": "address"
        },
        {
          "internalType": "uint256",
          "name": "tokenId",
          "type": "uint256"
        },
        {
          "internalType": "bytes",
          "name": "data",
          "type": "bytes"
        }
      ],
      "name": "safeTransferFrom",
      "outputs": [],
      "stateMutability": "nonpayable",
      "type": "function"
    },
    {
      "inputs": [
        {
          "internalType": "address",
          "name": "operator",
          "type": "address"
        },
        {
          "internalType": "bool",
          "name": "approved",
          "type": "bool"
        }
      ],
      "name": "setApprovalForAll",
      "outputs": [],
      "stateMutability": "nonpayable",
      "type": "function"
    },
    {
      "inputs": [
        {
          "internalType": "string",
          "name": "newBaseURI",
          "type": "string"
        }
      ],
      "name": "setBaseURI",
      "outputs": [],
      "stateMutability": "nonpayable",
      "type": "function"
    },
    {
      "inputs": [
        {
          "internalType": "uint256",
          "name": "newPrice",
          "type": "uint256"
        }
      ],
      "name": "setMintPrice",
      "outputs": [],
      "stateMutability": "nonpayable",
      "type": "function"
    },
    {
      "inputs": [
        {
          "internalType": "address",
          "name": "newRecipient",
          "type": "address"
        }
      ],
      "name": "setPayoutRecipient",
      "outputs": [],
      "stateMutability": "nonpayable",
      "type": "function"
    },
    {
      "inputs": [
        {
          "internalType": "uint256",
          "name": "tokenId",
          "type": "uint256"
        },
        {
          "internalType": "address",
          "name": "receiver",
          "type": "address"
        },
        {
          "internalType": "uint96",
          "name": "feeNumerator",
          "type": "uint96"
        }
      ],
      "name": "setTokenRoyalty",
      "outputs": [],
      "stateMutability": "nonpayable",
      "type": "function"
    },
    {
      "inputs": [
        {
          "internalType": "bytes4",
          "name": "interfaceId",
          "type": "bytes4"
        }
      ],
      "name": "supportsInterface",
      "outputs": [
        {
          "internalType": "bool",
          "name": "",
          "type": "bool"
        }
      ],
      "stateMutability": "view",
      "type": "function"
    },
    {
      "inputs": [],
      "name": "symbol",
      "outputs": [
        {
          "internalType": "string",
          "name": "",
          "type": "string"
        }
      ],
      "stateMutability": "view",
      "type": "function"
    },
    {
      "inputs": [],
      "name": "togglePublicMint",
      "outputs": [],
      "stateMutability": "nonpayable",
      "type": "function"
    },
    {
      "inputs": [
        {
          "internalType": "uint256",
          "name": "tokenId",
          "type": "uint256"
        }
      ],
      "name": "tokenURI",
      "outputs": [
        {
          "internalType": "string",
          "name": "",
          "type": "string"
        }
      ],
      "stateMutability": "view",
      "type": "function"
    },
    {
      "inputs": [],
      "name": "totalMinted",
      "outputs": [
        {
          "internalType": "uint256",
          "name": "",
          "type": "uint256"
        }
      ],
      "stateMutability": "view",
      "type": "function"
    },
    {
      "inputs": [
        {
          "internalType": "address",
          "name": "from",
          "type": "address"
        },
        {
          "internalType": "address",
          "name": "to",
          "type": "address"
        },
        {
          "internalType": "uint256",
          "name": "tokenId",
          "type": "uint256"
        }
      ],
      "name": "transferFrom",
      "outputs": [],
      "stateMutability": "nonpayable",
      "type": "function"
    },
    {
      "inputs": [
        {
          "internalType": "address",
          "name": "newOwner",
          "type": "address"
        }
      ],
      "name": "transferOwnership",
      "outputs": [],
      "stateMutability": "nonpayable",
      "type": "function"
    },
    {
      "inputs": [],
      "name": "withdraw",
      "outputs": [],
      "stateMutability": "nonpayable",
      "type": "function"
    }
  ],
  "bytecode": "0x608060405234801562000010575f80fd5b50604051620029c6380380620029c6833981016040819052620000339162000399565b3388886002620000448382620004f8565b506003620000538282620004f8565b5050506001600160a01b0381166200008557604051631e4fbdf760e01b81525f60048201526024015b60405180910390fd5b6200009081620001af565b506001600160a01b038316620000e95760405162461bcd60e51b815260206004820152601860248201527f496e76616c6964207061796f757420726563697069656e74000000000000000060448201526064016200007c565b6001600160a01b038216620001415760405162461bcd60e51b815260206004820152601960248201527f496e76616c696420726f79616c747920726563697069656e740000000000000060448201526064016200007c565b600b6200014f8782620004f8565b50600c859055600d849055600e8054610100600160a81b0319166101006001600160a01b03861602179055600f80546001600160601b0319166001600160601b038316179055620001a1828262000200565b5050505050505050620005c4565b600980546001600160a01b038381166001600160a01b0319831681179093556040519116919082907f8be0079c531659141344cd1fd0a4f28419497f9722a3daafe3b4186f6b6457e0905f90a35050565b6127106001600160601b0382168110156200024157604051636f483d0960e01b81526001600160601b0383166004820152602481018290526044016200007c565b6001600160a01b0383166200026c57604051635b6cc80560e11b81525f60048201526024016200007c565b50604080518082019091526001600160a01b039092168083526001600160601b039091166020909201829052600160a01b909102175f55565b634e487b7160e01b5f52604160045260245ffd5b5f82601f830112620002c9575f80fd5b81516001600160401b0380821115620002e657620002e6620002a5565b604051601f8301601f19908116603f01168101908282118183101715620003115762000311620002a5565b81604052838152602092508660208588010111156200032e575f80fd5b5f91505b8382101562000351578582018301518183018401529082019062000332565b5f602085830101528094505050505092915050565b80516001600160a01b03811681146200037d575f80fd5b919050565b80516001600160601b03811681146200037d575f80fd5b5f805f805f805f80610100898b031215620003b2575f80fd5b88516001600160401b0380821115620003c9575f80fd5b620003d78c838d01620002b9565b995060208b0151915080821115620003ed575f80fd5b620003fb8c838d01620002b9565b985060408b015191508082111562000411575f80fd5b50620004208b828c01620002b9565b96505060608901519450608089015193506200043f60a08a0162000366565b92506200044f60c08a0162000366565b91506200045f60e08a0162000382565b90509295985092959890939650565b600181811c908216806200048357607f821691505b602082108103620004a257634e487b7160e01b5f52602260045260245ffd5b50919050565b601f821115620004f357805f5260205f20601f840160051c81016020851015620004cf5750805b601f840160051c820191505b81811015620004f0575f8155600101620004db565b50505b505050565b81516001600160401b03811115620005145762000514620002a5565b6200052c816200052584546200046e565b84620004a8565b602080601f83116001811462000562575f84156200054a5750858301515b5f19600386901b1c1916600185901b178555620005bc565b5f85815260208120601f198616915b82811015620005925788860151825594840194600190910190840162000571565b5085821015620005b057878501515f19600388901b60f8161c191681555b505060018460011b0185555b505050505050565b6123f480620005d25f395ff3fe6080604052600436106101fc575f3560e01c80636817c76c11610113578063c87b56dd1161009d578063e985e9c51161006d578063e985e9c5146105b3578063f2f18baa146105d2578063f2fde38b146105f2578063f46eccc414610611578063f4a0a5281461063f575f80fd5b8063c87b56dd14610558578063d0def52114610577578063d547cfb71461058a578063d5abeb011461059e575f80fd5b806395d89b41116100e357806395d89b41146104d3578063983b2d56146104e7578063a22cb46514610506578063a2309ff814610525578063b88d4fde14610539575f80fd5b80636817c76c1461046057806370a0823114610483578063715018a6146104a25780638da5cb5b146104b6575f80fd5b80633ccfd60b1161019457806346bb59541161016457806346bb5954146103ad578063521f5e6a146103cc57806355f804b3146104035780635944c753146104225780636352211e14610441575f80fd5b80633ccfd60b146103425780633fb80b15146103565780634047638d1461037a57806342842e0e1461038e575f80fd5b80630f4161aa116101cf5780630f4161aa146102ad57806323b872dd146102c65780632a55205a146102e55780633092afd514610323575f80fd5b806301ffc9a71461020057806306fdde0314610234578063081812fc14610255578063095ea7b31461028c575b5f80fd5b34801561020b575f80fd5b5061021f61021a366004611cda565b61065e565b60405190151581526020015b60405180910390f35b34801561023f575f80fd5b5061024861066e565b60405161022b9190611d42565b348015610260575f80fd5b5061027461026f366004611d54565b6106fe565b6040516001600160a01b03909116815260200161022b565b348015610297575f80fd5b506102ab6102a6366004611d86565b610725565b005b3480156102b8575f80fd5b50600e5461021f9060ff1681565b3480156102d1575f80fd5b506102ab6102e0366004611dae565b610734565b3480156102f0575f80fd5b506103046102ff366004611de7565b6107c2565b604080516001600160a01b03909316835260208301919091520161022b565b34801561032e575f80fd5b506102ab61033d366004611e07565b610844565b34801561034d575f80fd5b506102ab610894565b348015610361575f80fd5b50600e546102749061010090046001600160a01b031681565b348015610385575f80fd5b506102ab61091e565b348015610399575f80fd5b506102ab6103a8366004611dae565b610973565b3480156103b8575f80fd5b506102ab6103c7366004611e07565b610992565b3480156103d7575f80fd5b50600f546103eb906001600160601b031681565b6040516001600160601b03909116815260200161022b565b34801561040e575f80fd5b506102ab61041d366004611ed8565b610a41565b34801561042d575f80fd5b506102ab61043c366004611f0a565b610a90565b34801561044c575f80fd5b5061027461045b366004611d54565b610aa3565b34801561046b575f80fd5b50610475600d5481565b60405190815260200161022b565b34801561048e575f80fd5b5061047561049d366004611e07565b610aad565b3480156104ad575f80fd5b506102ab610af2565b3480156104c1575f80fd5b506009546001600160a01b0316610274565b3480156104de575f80fd5b50610248610b05565b3480156104f2575f80fd5b506102ab610501366004611e07565b610b14565b348015610511575f80fd5b506102ab610520366004611f52565b610b67565b348015610530575f80fd5b50600a54610475565b348015610544575f80fd5b506102ab610553366004611f8b565b610b72565b348015610563575f80fd5b50610248610572366004611d54565b610b8a565b610475610585366004612002565b610b95565b348015610595575f80fd5b50610248610de1565b3480156105a9575f80fd5b50610475600c5481565b3480156105be575f80fd5b5061021f6105cd36600461204d565b610e6d565b6105e56105e036600461207e565b610e9a565b60405161022b919061214d565b3480156105fd575f80fd5b506102ab61060c366004611e07565b6111af565b34801561061c575f80fd5b5061021f61062b366004611e07565b60106020525f908152604090205460ff1681565b34801561064a575f80fd5b506102ab610659366004611d54565b6111ec565b5f61066882611229565b92915050565b60606002805461067d90612190565b80601f01602080910402602001604051908101604052809291908181526020018280546106a990612190565b80156106f45780601f106106cb576101008083540402835291602001916106f4565b820191905f5260205f20905b8154815290600101906020018083116106d757829003601f168201915b5050505050905090565b5f61070882611233565b505f828152600660205260409020546001600160a01b0316610668565b61073082823361126b565b5050565b6001600160a01b03821661076257604051633250574960e11b81525f60048201526024015b60405180910390fd5b5f61076e838333611278565b9050836001600160a01b0316816001600160a01b0316146107bc576040516364283d7b60e01b81526001600160a01b0380861660048301526024820184905282166044820152606401610759565b50505050565b5f82815260016020526040812080548291906001600160a01b03811690600160a01b90046001600160601b0316816108145750505f546001600160a01b03811690600160a01b90046001600160601b03165b5f61271061082b6001600160601b038416896121dc565b61083591906121f3565b92989297509195505050505050565b61084c61136a565b6001600160a01b0381165f81815260106020526040808220805460ff19169055517fe94479a9f7e1952cc78f2d6baab678adc1b772d936c6583def489e524cb666929190a250565b61089c61136a565b47806108e35760405162461bcd60e51b81526020600482015260166024820152754e6f2062616c616e636520746f20776974686472617760501b6044820152606401610759565b600e546040516101009091046001600160a01b0316906108fc8315029083905f818181858888f19350505050158015610730573d5f803e3d5ffd5b61092661136a565b600e805460ff8082161560ff1990921682179092556040519116151581527fa81e445dac2343503dc87e4663774817434721db7d985310a6959766e6d4480e9060200160405180910390a1565b61098d83838360405180602001604052805f815250610b72565b505050565b61099a61136a565b6001600160a01b0381166109f05760405162461bcd60e51b815260206004820152601860248201527f496e76616c6964207061796f757420726563697069656e7400000000000000006044820152606401610759565b600e8054610100600160a81b0319166101006001600160a01b038416908102919091179091556040517f5eb0913799140a38d5e80f5c04a585a09b65facadcbbe1a2c0c942d4198b2e93905f90a250565b610a4961136a565b600b610a558282612256565b507f6741b2fc379fad678116fe3d4d4b9a1a184ab53ba36b86ad0fa66340b1ab41ad81604051610a859190611d42565b60405180910390a150565b610a9861136a565b61098d838383611397565b5f61066882611233565b5f6001600160a01b038216610ad7576040516322718ad960e21b81525f6004820152602401610759565b506001600160a01b03165f9081526005602052604090205490565b610afa61136a565b610b035f611457565b565b60606003805461067d90612190565b610b1c61136a565b6001600160a01b0381165f81815260106020526040808220805460ff19166001179055517f6ae172837ea30b801fbfcdd4108aa1d5bf8ff775444fd70256b44e6bf3dfc3f69190a250565b6107303383836114a8565b610b7d848484610734565b6107bc338585858561156f565b606061066882611697565b335f9081526010602052604081205460ff1680610bbc57506009546001600160a01b031633145b610c015760405162461bcd60e51b8152602060048201526016602482015275139bdd08185d5d1a1bdc9a5e9959081d1bc81b5a5b9d60521b6044820152606401610759565b600c54600a5410610c495760405162461bcd60e51b815260206004820152601260248201527113585e081cdd5c1c1b1e481c995858da195960721b6044820152606401610759565b335f9081526010602052604090205460ff16158015610c7357506009546001600160a01b03163314155b15610d0d57600e5460ff16610cc45760405162461bcd60e51b8152602060048201526017602482015276141d589b1a58c81b5a5b9d081b9bdd08195b98589b1959604a1b6044820152606401610759565b600d54341015610d0d5760405162461bcd60e51b8152602060048201526014602482015273125b9cdd59999a58da595b9d081c185e5b595b9d60621b6044820152606401610759565b600a8054906001905f610d208385612312565b90915550610d309050848261170c565b610d3a8184611725565b600f54610d5390829086906001600160601b0316611397565b3415610d9857600e546040516001600160a01b0361010090920491909116903480156108fc02915f818181858888f19350505050158015610d96573d5f803e3d5ffd5b505b80846001600160a01b03167fd35bb95e09c04b219e35047ce7b7b300e3384264ef84a40456943dbc0fc17c1485604051610dd29190611d42565b60405180910390a39392505050565b600b8054610dee90612190565b80601f0160208091040260200160405190810160405280929190818152602001828054610e1a90612190565b8015610e655780601f10610e3c57610100808354040283529160200191610e65565b820191905f5260205f20905b815481529060010190602001808311610e4857829003601f168201915b505050505081565b6001600160a01b039182165f90815260076020908152604080832093909416825291909152205460ff1690565b335f9081526010602052604090205460609060ff1680610ec457506009546001600160a01b031633145b610f095760405162461bcd60e51b8152602060048201526016602482015275139bdd08185d5d1a1bdc9a5e9959081d1bc81b5a5b9d60521b6044820152606401610759565b600c548251600a54610f1b9190612312565b1115610f5e5760405162461bcd60e51b815260206004820152601260248201527145786365656473206d617820737570706c7960701b6044820152606401610759565b335f9081526010602052604090205460ff16158015610f8857506009546001600160a01b03163314155b1561102e57600e5460ff16610fd95760405162461bcd60e51b8152602060048201526017602482015276141d589b1a58c81b5a5b9d081b9bdd08195b98589b1959604a1b6044820152606401610759565b8151600d54610fe891906121dc565b34101561102e5760405162461bcd60e51b8152602060048201526014602482015273125b9cdd59999a58da595b9d081c185e5b595b9d60621b6044820152606401610759565b5f825167ffffffffffffffff81111561104957611049611e20565b604051908082528060200260200182016040528015611072578160200160208202803683370190505b5090505f5b835181101561116257600a8054906001905f6110938385612312565b909155506110a39050868261170c565b6110c6818684815181106110b9576110b9612325565b6020026020010151611725565b600f546110df90829088906001600160601b0316611397565b808383815181106110f2576110f2612325565b60200260200101818152505080866001600160a01b03167fd35bb95e09c04b219e35047ce7b7b300e3384264ef84a40456943dbc0fc17c1487858151811061113c5761113c612325565b60200260200101516040516111519190611d42565b60405180910390a350600101611077565b5034156111a857600e546040516001600160a01b0361010090920491909116903480156108fc02915f818181858888f193505050501580156111a6573d5f803e3d5ffd5b505b9392505050565b6111b761136a565b6001600160a01b0381166111e057604051631e4fbdf760e01b81525f6004820152602401610759565b6111e981611457565b50565b6111f461136a565b600d8190556040518181527f525b762709cc2a983aec5ccdfd807a061f993c91090b5bcd7da92ca254976aaa90602001610a85565b5f61066882611774565b5f818152600460205260408120546001600160a01b03168061066857604051637e27328960e01b815260048101849052602401610759565b61098d8383836001611798565b5f828152600460205260408120546001600160a01b03908116908316156112a4576112a481848661189c565b6001600160a01b038116156112de576112bf5f855f80611798565b6001600160a01b0381165f90815260056020526040902080545f190190555b6001600160a01b0385161561130c576001600160a01b0385165f908152600560205260409020805460010190555b5f8481526004602052604080822080546001600160a01b0319166001600160a01b0389811691821790925591518793918516917fddf252ad1be2c89b69c2b068fc378daa952ba7f163c4a11628f55a4df523b3ef91a4949350505050565b6009546001600160a01b03163314610b035760405163118cdaa760e01b8152336004820152602401610759565b6127106001600160601b0382168110156113dd5760405163dfd1fc1b60e01b8152600481018590526001600160601b038316602482015260448101829052606401610759565b6001600160a01b03831661140d57604051634b4f842960e11b8152600481018590525f6024820152604401610759565b506040805180820182526001600160a01b0393841681526001600160601b0392831660208083019182525f968752600190529190942093519051909116600160a01b029116179055565b600980546001600160a01b038381166001600160a01b0319831681179093556040519116919082907f8be0079c531659141344cd1fd0a4f28419497f9722a3daafe3b4186f6b6457e0905f90a35050565b6001600160a01b0383166114d15760405163a9fbf51f60e01b81525f6004820152602401610759565b6001600160a01b03821661150357604051630b61174360e31b81526001600160a01b0383166004820152602401610759565b6001600160a01b038381165f81815260076020908152604080832094871680845294825291829020805460ff191686151590811790915591519182527f17307eab39ab6107e8899845ad3d59bd9653f200f220920489ca2b5937696c31910160405180910390a3505050565b6001600160a01b0383163b1561169057604051630a85bd0160e11b81526001600160a01b0384169063150b7a02906115b1908890889087908790600401612339565b6020604051808303815f875af19250505080156115eb575060408051601f3d908101601f191682019092526115e891810190612375565b60015b611652573d808015611618576040519150601f19603f3d011682016040523d82523d5f602084013e61161d565b606091505b5080515f0361164a57604051633250574960e11b81526001600160a01b0385166004820152602401610759565b805160208201fd5b6001600160e01b03198116630a85bd0160e11b1461168e57604051633250574960e11b81526001600160a01b0385166004820152602401610759565b505b5050505050565b60606116a282611233565b505f6116ac611900565b90505f6116b88461190f565b905081515f036116c9579392505050565b8051156116fb5781816040516020016116e3929190612390565b60405160208183030381529060405292505050919050565b611704846119ae565b949350505050565b610730828260405180602001604052805f815250611a12565b5f82815260086020526040902061173c8282612256565b506040518281527ff8e1a15aba9398e019f0b49df1a4fde98ee17ae345cb5f6b5e2c27f5033e8ce79060200160405180910390a15050565b5f6001600160e01b03198216632483248360e11b1480610668575061066882611a29565b80806117ac57506001600160a01b03821615155b1561186d575f6117bb84611233565b90506001600160a01b038316158015906117e75750826001600160a01b0316816001600160a01b031614155b80156117fa57506117f88184610e6d565b155b156118235760405163a9fbf51f60e01b81526001600160a01b0384166004820152602401610759565b811561186b5783856001600160a01b0316826001600160a01b03167f8c5be1e5ebec7d5bd14f71427d1e84f3dd0314c0f7b2291e5b200ac8c7c3b92560405160405180910390a45b505b50505f90815260066020526040902080546001600160a01b0319166001600160a01b0392909216919091179055565b6118a7838383611a68565b61098d576001600160a01b0383166118d557604051637e27328960e01b815260048101829052602401610759565b60405163177e802f60e01b81526001600160a01b038316600482015260248101829052604401610759565b6060600b805461067d90612190565b5f81815260086020526040902080546060919061192b90612190565b80601f016020809104026020016040519081016040528092919081815260200182805461195790612190565b80156119a25780601f10611979576101008083540402835291602001916119a2565b820191905f5260205f20905b81548152906001019060200180831161198557829003601f168201915b50505050509050919050565b60606119b982611233565b505f6119c3611900565b90505f8151116119e15760405180602001604052805f8152506111a8565b806119eb84611ac9565b6040516020016119fc929190612390565b6040516020818303038152906040529392505050565b611a1c8383611b59565b61098d335f85858561156f565b5f6001600160e01b031982166380ac58cd60e01b1480611a5957506001600160e01b03198216635b5e139f60e01b145b80610668575061066882611bba565b5f6001600160a01b038316158015906117045750826001600160a01b0316846001600160a01b03161480611aa15750611aa18484610e6d565b806117045750505f908152600660205260409020546001600160a01b03908116911614919050565b60605f611ad583611bee565b60010190505f8167ffffffffffffffff811115611af457611af4611e20565b6040519080825280601f01601f191660200182016040528015611b1e576020820181803683370190505b5090508181016020015b5f19016f181899199a1a9b1b9c1cb0b131b232b360811b600a86061a8153600a8504945084611b2857509392505050565b6001600160a01b038216611b8257604051633250574960e11b81525f6004820152602401610759565b5f611b8e83835f611278565b90506001600160a01b0381161561098d576040516339e3563760e11b81525f6004820152602401610759565b5f6001600160e01b0319821663152a902d60e11b148061066857506301ffc9a760e01b6001600160e01b0319831614610668565b5f8072184f03e93ff9f4daa797ed6e38ed64bf6a1f0160401b8310611c2c5772184f03e93ff9f4daa797ed6e38ed64bf6a1f0160401b830492506040015b6d04ee2d6d415b85acef81000000008310611c58576d04ee2d6d415b85acef8100000000830492506020015b662386f26fc100008310611c7657662386f26fc10000830492506010015b6305f5e1008310611c8e576305f5e100830492506008015b6127108310611ca257612710830492506004015b60648310611cb4576064830492506002015b600a83106106685760010192915050565b6001600160e01b0319811681146111e9575f80fd5b5f60208284031215611cea575f80fd5b81356111a881611cc5565b5f5b83811015611d0f578181015183820152602001611cf7565b50505f910152565b5f8151808452611d2e816020860160208601611cf5565b601f01601f19169290920160200192915050565b602081525f6111a86020830184611d17565b5f60208284031215611d64575f80fd5b5035919050565b80356001600160a01b0381168114611d81575f80fd5b919050565b5f8060408385031215611d97575f80fd5b611da083611d6b565b946020939093013593505050565b5f805f60608486031215611dc0575f80fd5b611dc984611d6b565b9250611dd760208501611d6b565b9150604084013590509250925092565b5f8060408385031215611df8575f80fd5b50508035926020909101359150565b5f60208284031215611e17575f80fd5b6111a882611d6b565b634e487b7160e01b5f52604160045260245ffd5b604051601f8201601f1916810167ffffffffffffffff81118282101715611e5d57611e5d611e20565b604052919050565b5f67ffffffffffffffff831115611e7e57611e7e611e20565b611e91601f8401601f1916602001611e34565b9050828152838383011115611ea4575f80fd5b828260208301375f602084830101529392505050565b5f82601f830112611ec9575f80fd5b6111a883833560208501611e65565b5f60208284031215611ee8575f80fd5b813567ffffffffffffffff811115611efe575f80fd5b61170484828501611eba565b5f805f60608486031215611f1c575f80fd5b83359250611f2c60208501611d6b565b915060408401356001600160601b0381168114611f47575f80fd5b809150509250925092565b5f8060408385031215611f63575f80fd5b611f6c83611d6b565b915060208301358015158114611f80575f80fd5b809150509250929050565b5f805f8060808587031215611f9e575f80fd5b611fa785611d6b565b9350611fb560208601611d6b565b925060408501359150606085013567ffffffffffffffff811115611fd7575f80fd5b8501601f81018713611fe7575f80fd5b611ff687823560208401611e65565b91505092959194509250565b5f8060408385031215612013575f80fd5b61201c83611d6b565b9150602083013567ffffffffffffffff811115612037575f80fd5b61204385828601611eba565b9150509250929050565b5f806040838503121561205e575f80fd5b61206783611d6b565b915061207560208401611d6b565b90509250929050565b5f806040838503121561208f575f80fd5b61209883611d6b565b915060208084013567ffffffffffffffff808211156120b5575f80fd5b818601915086601f8301126120c8575f80fd5b8135818111156120da576120da611e20565b8060051b6120e9858201611e34565b918252838101850191858101908a841115612102575f80fd5b86860192505b8383101561213c5782358581111561211e575f80fd5b61212c8c89838a0101611eba565b8352509186019190860190612108565b809750505050505050509250929050565b602080825282518282018190525f9190848201906040850190845b8181101561218457835183529284019291840191600101612168565b50909695505050505050565b600181811c908216806121a457607f821691505b6020821081036121c257634e487b7160e01b5f52602260045260245ffd5b50919050565b634e487b7160e01b5f52601160045260245ffd5b8082028115828204841417610668576106686121c8565b5f8261220d57634e487b7160e01b5f52601260045260245ffd5b500490565b601f82111561098d57805f5260205f20601f840160051c810160208510156122375750805b601f840160051c820191505b81811015611690575f8155600101612243565b815167ffffffffffffffff81111561227057612270611e20565b6122848161227e8454612190565b84612212565b602080601f8311600181146122b7575f84156122a05750858301515b5f19600386901b1c1916600185901b17855561168e565b5f85815260208120601f198616915b828110156122e5578886015182559484019460019091019084016122c6565b508582101561230257878501515f19600388901b60f8161c191681555b5050505050600190811b01905550565b80820180821115610668576106686121c8565b634e487b7160e01b5f52603260045260245ffd5b6001600160a01b03858116825284166020820152604081018390526080606082018190525f9061236b90830184611d17565b9695505050505050565b5f60208284031215612385575f80fd5b81516111a881611cc5565b5f83516123a1818460208801611cf5565b8351908301906123b5818360208801611cf5565b0194935050505056fea2646970667358221220ccee49c0f81304026f08ed5ef0f0b5ba76500df73209c62b9621309d8b1353ce64736f6c63430008180033",
  "linkReferences": {},
  "deployedLinkReferences": {}
}